:020000040800F2
:1000000080CB0220AD0200087D3F000823310008AC
:10001000CD350008290800088B6B0008000000009F
:100020000000000000000000000000001D53000858
:10003000FD0D00080000000017400008A55300084F
:10004000C7020008C7020008C7020008C70200086C
:10005000C7020008C7020008C7020008C70200085C
:10006000C7020008C7020008C7020008C70200084C
:10007000C7020008C7020008C7020008C70200083C
:10008000C7020008C7020008C7020008C70200082C
:10009000C7020008C7020008C7020008C70200081C
:1000A000C7020008C7020008C7020008C70200080C
:1000B000C7020008C7020008C7020008C7020008FC
:1000C000C7020008C7020008C7020008C7020008EC
:1000D000C702000811570008C7020008C70200083D
:1000E000C7020008C7020008C7020008C7020008CC
:1000F000C7020008C7020008C7020008C7020008BC
:10010000C7020008C7020008C7020008C7020008AB
:10011000C7020008C7020008C7020008C70200089B
:10012000C7020008C7020008C7020008C70200088B
:10013000C7020008C7020008C7020008C70200087B
:10014000C7020008C7020008C7020008A13F000854
:10015000C7020008C7020008C7020008C70200085B
:10016000C7020008C7020008C7020008C70200084B
:10017000C7020008C7020008C7020008000000000C
:10018000C7020008C7020008C7020008C70200082B
:10019000C7020008C7020008C7020008C70200081B
:1001A000C7020008C7020008C702000800F002F8F2
:1001B00000F064F80AA090E8000C82448344AAF19D
:1001C0000107DA4501D100F059F8AFF2090EBAE89B
:1001D0000F0013F0010F18BFFB1A43F0010318477B
:1001E000C4710000E47100000A444FF0000C10F8E4
:1001F000013B13F0070408BF10F8014B1D1108BFA5
:1002000010F8015B641E05D010F8016B641E01F844
:10021000016BF9D113F0080F1EBF10F8014BAD1C94
:100220000C1B09D16D1E58BF01F801CBFAD505E0B2
:1002300014F8016B01F8016B6D1EF9D59142D6D30C
:10024000704700000023002400250026103A28BF34
:1002500078C1FBD8520728BF30C148BF0B60704738
:10026000642900F0FB80782900F034810020704779
:100270001FB507F021F81FBD10B510BD00F0A2FAA0
:100280001146FFF7F5FF06F057FE00F0C0FA03B481
:10029000FFF7F2FF03BC06F011FE000030BF72B69C
:1002A000704762B6704780F30888704709488047F6
:1002B00009480047FEE7FEE7FEE7FEE7FEE7FEE748
:1002C000FEE7FEE7FEE7FEE704480549054A064B60
:1002D00070470000A9530008AD01000880C5022046
:1002E00080CB022080C7022080C70220704753EADB
:1002F000020C00F069802DE9F04B4FF00006002B56
:100300001FBFB3FA83F503FA05F424FA05F65E403D
:1003100012BF1643B2FA82F502FA05F4C5F12005C0
:100320001EBF22FA05FC44EA0C04203556EA044CB0
:100330004FEA144418BF641C4FF000084FF0000946
:10034000904271EB030C39D3002919BFB1FA81F740
:1003500001FA07F6B0FA80F700FA07F6C7F12007AE
:100360001EBF20FA07FC46EA0C062037B6FBF4FC59
:10037000A7EB0507103F07F01F0BCBF120060CFA87
:100380000BFB2CFA06F644BFB3460026202FA4BF71
:100390005E464FF0000B5BEA060C08BF4FF0010B06
:1003A00019EB0B09ABFB027C48EB0608C01B06FBF4
:1003B00002CC0BFB03CC71EB0C01C1E70B460246F0
:1003C00041464846BDE8F08B13B54FF000004FF0B2
:1003D0000001AFF30080BDE81C4070470FB4044932
:1003E00010B503AA029800F0BFF910BC5DF814FB29
:1003F000200000202DE9F0410E4604460020206236
:100400002046E168884730B3252805D0D4E901218A
:100410009047206A401CF2E7E168204600278847A1
:10042000050018D0A5F14100192802D820354FF455
:1004300000673246294620462760FFF711FF40B18A
:10044000012804D0F61D26F007060836D8E7361D29
:10045000D6E72846DAE7206ABDE8F0812DE9F041C9
:100460000646002410687529314616A510D0AFF352
:100470000080002802DA404213A507E031688A07AD
:1004800001D512A502E0490704D511A5012401E018
:10049000AFF3008000210A2206F1240709E0B0FB37
:1004A000F2FCB0FBF2F302FB1C003030785418462B
:1004B000491C0028F3D123462A463046BDE8F041C6
:1004C00000F0F8B8000000002D0000002B00000034
:1004D0002000000070B504460D4621461068AFF3B9
:1004E00000802188090502D50F4A7A4402E00E4AAD
:1004F0007A440E32002104F1240305E000F00F06D7
:100500000009965D5E54491C0028F7D1207800232D
:10051000000704D5702D02D009B102231132204604
:10052000BDE8704000F0C6B88D6E0000032A40F2AE
:10053000308010F0030C00F0158011F8013BBCF185
:10054000020F624498BF11F801CB00F8013B38BF9D
:1005500011F8013BA2F1040298BF00F801CB38BFAB
:1005600000F8013B11F0030300F02580083AC0F0C9
:10057000088051F8043B083A51F804CBA0E8081071
:10058000F5E7121D5CBF51F8043B40F8043BAFF3A4
:100590000080D20724BF11F8013B11F801CB48BFFE
:1005A00011F8012B24BF00F8013B00F801CB48BF34
:1005B00000F8012B704710B5203AC0F00B80B1E86D
:1005C0001850203AA0E81850B1E81850A0E8185088
:1005D000BFF4F5AF5FEA027C24BFB1E81850A0E891
:1005E000185044BF18C918C0BDE810405FEA827CAB
:1005F00024BF51F8043B40F8043B08BF7047D207C2
:1006000028BF31F8023B48BF11F8012B28BF20F862
:10061000023B48BF00F8012B70474FF0000204294D
:10062000C0F0128010F0030C00F01B80CCF1040C21
:10063000BCF1020F18BF00F8012BA8BF20F8022B55
:10064000A1EB0C0100F00DB85FEAC17C24BF00F8FB
:10065000012B00F8012B48BF00F8012B70474FF029
:10066000000200B5134694469646203922BFA0E802
:100670000C50A0E80C50B1F12001BFF4F7AF09070E
:1006800028BFA0E80C5048BF0CC05DF804EB8900FF
:1006900028BF40F8042B08BF704748BF20F8022B42
:1006A00011F0804F18BF00F8012B7047704770475A
:1006B000704770472DE9F0470D469946924604462B
:1006C00000F124080168880604D5E06921F01001D2
:1006D000216000E00120A84201DD471B00E0002767
:1006E000A1697A1902EB0900081AA0612078C006F6
:1006F00002D42046AFF30080002608E0D4E90121AF
:100700001AF806009047206A401C761C20624E456D
:10071000F4DB2078C0060AD52046AFF3008006E05F
:10072000D4E9012130209047206A401C2062381E05
:10073000A7F10107F4DC07E0D4E9012118F805006E
:100740009047206A401C2062281EA5F10105F3DCB9
:100750002046AFF300802078000602D50220BDE8D5
:10076000F0870120FBE70000074B70B50D467B4486
:1007700000F011F80446284600F020F810B14FF0C0
:10078000FF3070BD204670BDB367000001694A1C90
:1007900002610878704700B58FB0CDE901310021C2
:1007A000059105497944CDE9031011466846FFF7E4
:1007B00021FE0FB000BD0000E5FFFFFF007B00F051
:1007C00080007047754600F02BF8AE46050069467C
:1007D000534620F00700854618B020B5FFF774FD9A
:1007E000BDE820404FF000064FF000074FF0000832
:1007F0004FF0000B21F00701AC46ACE8C009ACE8B3
:10080000C009ACE8C009ACE8C0098D46704710B516
:100810000446AFF300802046BDE81040FFF737BD27
:10082000004870471CC50220FEE710B50B460C06B9
:1008300001F07F0202EB820100EBC10102D501F55C
:100840008E7101E001F55D710A70DA094A7005F0F8
:1008500093FF002010BD0A4610B5090602F07F0381
:1008600006D503EB830100EBC10101F58E7105E0B4
:1008700002EB820100EBC10101F55D7100248C7077
:100880000B70D2094A7005F05EFF002010BD10B554
:100890000A0604D501F07F0106F084F801E006F0B5
:1008A00063F8002010BD70B50D460E0601F07F0400
:1008B00004EB840100EBC10102D501F58E7101E06A
:1008C00001F55D71ED090C704D708A60CB7000D040
:1008D000CC80022B01D100220A7105F00BFF002011
:1008E00070BD10B501F07F0404EB840100EBC10181
:1008F000C1F88833C1F880230023C1F88C3381F814
:10090000753381F87443C37801F55D71012B00D113
:100910000A6114F0FF0F03D005F060FF002010BD46
:1009200005F07DFEFAE70069002261F30A12016812
:100930001143016070470A4610B5090602F07F03B3
:1009400006D503EB830100EBC10101F58E7105E0D3
:1009500002EB820100EBC10101F55D7101248C7095
:100960000B70D2094A7005F021FF002010BD70B550
:1009700011F07F0404EB840100EBC1014FF001058D
:1009800081F81D5181F81C41C1F82821C1F82C21A2
:1009900001F58E714FF00002C1E9053203D005F078
:1009A0001DFF002070BD05F03AFEFAE770B5044661
:1009B00005F01AFEE068C16821F47055C560204654
:1009C00006F012F80146002003290FD00120A07084
:1009D0004020A08025F4705000F5A050E168C86068
:1009E000E1684FF400504861012070BDA0704FF4E1
:1009F0000070A08025F4705000F51050EEE7000064
:100A00002DE9F0410646002406F011F8074650E0B3
:100A1000F8074CD03069E1B20369426BCA4006EB7B
:100A2000810102F00102896943EAC2128D68154012
:100A3000E9071AD00125426B05FA04F18A434263A3
:100A400006EB8400806985601C48E1B2006842685A
:100A500030469047F078012807D134B996F8110153
:100A6000042802D1304605F033FE280704D506EBF2
:100A70008400082580698560E80604D506EB8400BB
:100A8000102580698560680604D506EB8400402542
:100A900080698560A80704D506EB8400022580697B
:100AA0008560280603D52146304600F060F97F08AE
:100AB000641C002FACD10120BDE8F0817C00002037
:100AC0002DE9F0410546002405F0B7FF0746DFF8A1
:100AD000988043E0F8073FD0E1B2284605F0B3FF25
:100AE0000646C00725D005EB84000126416D8E60C7
:100AF000E97801290CD1406D016904EB840005EB14
:100B0000C000C1F31201D0F87C23511AC0F88C1335
:100B1000D8F80000E1B2026828469047E87801283A
:100B200007D134B995F81101052802D1284605F0FE
:100B3000CFFDB00704D505EB84000226406D86602A
:100B4000300709D5D8F8000081682846884705EBAA
:100B500084010820496D88607F08641C002FB9D18A
:100B60000120BDE8F08100007C00002070B5054642
:100B7000C068816921F010018161E868066A06F0A9
:100B80000F0000EB800005EBC004C6F3434004F502
:100B90005D74072821D2DFE800F020200420202007
:100BA000150047F6F070064217D0C6F30A16324613
:100BB0002846E16805F04FFFE0683044E060A06936
:100BC000304409E0082205F2CC51284605F043FFE5
:100BD000A069C6F30A110844A061E868816941F080
:100BE00010018161012070BD38B5044600208DF8E8
:100BF000000094F812018DF8000015480068416962
:100C00002046884720698068E2684FF4006151619E
:100C1000A17AD1B1C00718D094F81501012814D1D8
:100C20009DF80000032810D1D4F80C01016841F0B0
:100C300001010160D4F80C01016841F00301016079
:100C40000448016841F006010160012038BD000040
:100C50007C00002010ED00E070B50446006900251E
:100C60000126416821F0010141602946204605F036
:100C700099FE0020FF2206E004EB80018B699A6058
:100C8000496D8A60401C61788142F5D821694FF036
:100C9000FF3088612846216966F30F0066F31F4024
:100CA000C861216945F00B004861216945F00B00DE
:100CB00008612069016821F4FE610160204605F0A9
:100CC00007FDE1684FF480504861034800680169FE
:100CD00020468847012070BD7C00002070B5044686
:100CE00005F0CAFE0120002384F8120184F81431B3
:100CF0001A46402510E002EB820104EBC10181F8A5
:100D00001D0181F81C21A1F8222181F81F31C1E9C0
:100D10004953521CC1F8303161789142EBD8002020
:100D200010E000EB800104EBC10181F8753381F81C
:100D30007403A1F87A0381F87733C1E9DF53401CCB
:100D4000C1F8883361788142EBD8204605F044FC35
:100D5000204605F03EFB0021204605F0EDFE204632
:100D600005F077FB2046BDE8704005F0F5BD2DE9A4
:100D7000F0470E4601EB860100EBC1048046D4E942
:100D80004C01401AD4F8241104F58E74814200D22B
:100D90000846C01C08EB86098708D9F81800816945
:100DA00020E0451AA068A84200D20546E81C870842
:100DB000ABB2F2B24046E16805F0D3FEE0682844E9
:100DC000E060A0692844A061D9F8181089696269B7
:100DD000824207D1207801228240D8F81000436B6C
:100DE0009343436388B2B84205D9D4E905018142EF
:100DF00001D20028D5D10120BDE8F0877047102A24
:100E00000FD0C26AD1E9002342EA03220B89097B91
:100E10004FEA034343EA016142EA010203D1C2609F
:100E200002E0C268EEE7C2624FF000007047102A8D
:100E30000FD0826AD1E9002342EA03220B89097BA1
:100E40004FEA034343EA016142EA010203D18260AF
:100E500002E08268EEE782624FF000007047000017
:100E600030B50A68102A1AD0026A104B02EA03024F
:100E7000D1E9013443EA0403D1E9034544EA050416
:100E800043EA04034C69896943EA442343EA413154
:100E900041EA020141F0080103D1016002E0026869
:100EA000E3E701624FF0000030BD00008101F0FF78
:100EB00030B5D1E901231A43D1E9033423431A435E
:100EC0004B690D681A438B691A43D1E90734012D28
:100ED000496A05686FF30E0505D01A4322430A4399
:100EE0002A43026008E0234329430B43416803601F
:100EF0006FF30E010A434260002030BD426942EAAE
:100F00004101416100207047F8B514460546D1E91A
:100F1000000210438A686FF01F03C96803EB421296
:100F200042EA412108430090286100F001FD064695
:100F300009E0601C07D024B100F0FAFC801BA0423D
:100F400001D90320F8BDA8698006F2D40020F8BDBD
:100F5000F0B56FF00F05D1E9003405EB04145B1E0A
:100F60002E0123438C682F0306EB04244FEA054C23
:100F700023430D8A8E8ACC68097E4FF07F4E07EBA3
:100F800005450CEB06560EEB0161012A0CD0826878
:100F90003F1107EB043423432B43334302F07042E9
:100FA0000B43134383600FE0C2682B430B4302F0F3
:100FB00070428168134301F070422103A1F5805112
:100FC00031431143C36081600020F0BD38B5044651
:100FD000094D4FF0AA300090A879042360436A4677
:100FE000002102F0BBFFA879042360436A46002178
:100FF000401C02F0B3FF38BD181C00202DE9FC474F
:10100000254F89460646002500240DF1040810E00E
:10101000CDF80080798870438B084A46002102F0A1
:1010200035FE7888BDF80410B1EB900F04D1641C34
:10103000A4B2B879A042EBD8B879A04202D100207E
:10104000BDE8FC87304602F043FC20B1294613A0DE
:10105000FFF7C4F916E0B9F1FF3F13D000200AE012
:101060007A8806FB001093080022114602F04CFF1C
:10107000BDF80400401CADF80400B879BDF80410B8
:101080008842EDD86D1CADB2032DBDD3314609A009
:10109000FFF7A4F90120D3E7181C00206572726FD6
:1010A0007220657261736520626C6F636B3A2564B0
:1010B0000D0A000062616420626C6F636B206368DC
:1010C00065636B65643A25640D0A000038B5044613
:1010D000104D00208DF80000A879012360436A4676
:1010E000002102F007FE9DF80000FF2801D0022039
:1010F00038BDA879012360436A460021401C02F0F4
:10110000F9FD9DF80000FF2801D0012038BD002026
:1011100038BD0000181C00202DE9F84F91462F4AD9
:101120008A461D469179B0FBF1F3B0FBF1F801FB63
:10113000130B404600F0B8F8284907464889B842E2
:1011400002D20120BDE8F88F002428E05C4516D3C8
:10115000ADB14A88A2EB0A01A94201D28EB200E0E9
:10116000AEB207FB004108FB00404B4652460096DA
:1011700002F02EFA4FF0000AB144AD1B05E007FB68
:10118000004108FB004002F0F7FA30B13846FFF7A3
:101190001DFF012000F024F8CBE7641CA4B20F4926
:1011A0008879A042D2D80D46A879A04214D13846F9
:1011B00000F028FA404602F08BFB00206A8969693A
:1011C00008E031F81040444502D121F8107003E0E6
:1011D000401C80B28242F4D80020B3E7181C0020E3
:1011E000F8B506460021294D4FF6FF7003E06A6905
:1011F00022F81100491C6A898A42F8D80020A88187
:1012000004461CE0A879042360436A46002102F0EA
:1012100071FD9DF80000FF280CD1B6B1A87901231B
:1012200060436A460021401C02F064FD9DF8000006
:10123000FF280AD0214616A0FFF7D0F8641C698960
:10124000A142DFD800206A6916E09DF802009DF8EF
:10125000031000EB01206989814202D9696921F8F4
:101260001040A889401CA881E8E732F810308B4272
:1012700001D3E88102E0401C8142F6D8E889642865
:1012800001D20220F8BD0020F8BD0000181C00208B
:1012900062616420626C6F636B20696E6465783A8A
:1012A00025640D0A0000000070B5104E104C7189C5
:1012B0002268491E914200D2216000F001052946B2
:1012C000206800F017F8411C0AD170892168401E7F
:1012D000884207D92946206000F00CF8411C01D053
:1012E000206070BD4FF0FF3070BD0000181C002062
:1012F00028000020F8B50D460021401C0091040094
:1013000012D00C4F012626EA0400A8420AD1B8796F
:10131000611E484304236A46002102F0EBFC00985A
:10132000401C04D0641EEED14FF0FF30F8BD601EAB
:10133000F8BD0000181C0020F8B5254E00273C46DB
:10134000B78113E02046FFF7C1FE70B9204602F0D6
:10135000BFFA38B121461FA0FFF740F82046FFF73B
:1013600035FE02E0B089401CB081641C7089A04247
:10137000E8D8B1891BA0FFF731F8B089642801D201
:101380000120F8BDC0EB4010642100EB4000B0FB31
:10139000F1F50024009710E02046FFF797FE58B9BA
:1013A000B079022360436A46194602F0D7FD0098DF
:1013B000401C0090A84203D0641C7089A042EBD866
:1013C0000120FFF70DFF0028DBD00220F8BD000050
:1013D000181C002042616420626C6F636B3A2564C4
:1013E0000D0A0000676F6F645F626C6F636B6E75F0
:1013F0006D3A25640D0A000010B502F095FA00BBA5
:10140000184C616911B1002005F022FF608941008C
:10141000002005F029FF606161894900FFF7FDF8B0
:10142000606970B10120FFF7DBFE60B10EA0FEF72E
:10143000D5FFFFF781FF90B111A0FEF7CFFF02208B
:1014400010BD012010BD618912A0FEF7C7FFA18960
:1014500016A0FEF7C3FFE18919A0FEF7BFFF002029
:1014600010BD0000181C0020666F726D6174206E44
:10147000616E6420666C6173682E2E2E0D0A00006A
:10148000666F726D6174206661696C6564210D0A16
:1014900000000000746F74616C20626C6F636B20DD
:1014A0006E756D3A25640D0A00000000676F6F6469
:1014B00020626C6F636B206E756D3A25640D0A00B7
:1014C00076616C696420626C6F636B206E756D3A37
:1014D00025640D0A000000000549CA89824202D233
:1014E0004FF6FF707047496931F8100070470000EF
:1014F000181C00202DE9FF5F9B46154682460026FA
:1015000079E03F4C6088B0FBF5F1A0794143019848
:101510008319B3FBF1F0FFF7DFFF6189814203D844
:10152000012004B0BDE8F09F354C6188A479B1FB7F
:10153000F5F26243B3FBF2F702FB17326A43B2FBE8
:10154000F1F300FB0437B2FBF1F001FB1028A1EB33
:101550000800B0FBF5F084B2ABEB0600A04200D26D
:1015600084B204FB05F91FFA89F31FFA88F1524689
:10157000384602F06DFA032809D11FFA89F31FFAE1
:1015800088F15246384602F063FA032804D0042852
:101590002ED068B30220C4E74B461FFA88F15246AA
:1015A0003846FFF7B9FDDFF858804FF0FF3198F863
:1015B0000600B7FBF0F0FFF721FD80B998F80600B0
:1015C0000021B7FBF0F0FFF719FD814698F80600FF
:1015D000B7FBF0F002F07CF9B9F1000F08D098F8F1
:1015E0000600B7FBF0F0FFF7F1FC0120FFF7F8FD74
:1015F00005FB04AA26445E4583D3002091E7000042
:10160000181C002008B5CC218DF8001004490123D6
:101610006A4689794843194602F0A0FC08BD0000DB
:10162000181C00202DE9FF4F85B0154600274FF00C
:10163000FF3B7BE0404C6088A179B0FBF5F048436C
:101640000699CB19B3FBF0F0FFF746FF618980469E
:10165000414503D8012009B0BDE8F08F364A5088D3
:101660009279B0FBF5F15143B3FBF1F401FB143176
:1016700001FB05FABAFBF0F308FB0231BAFBF0F20A
:1016800000FB12A9A0EB090080B2B0FBF5F00291BB
:101690000899ADF80400C91B8CB20391844200D3B1
:1016A000044601A804FB05F600901FFA89F1C6F371
:1016B0008F034FF0FF32029802F0E8FA08B10220DF
:1016C000C9E7BDF80400B0EB960F0FD1B3B21FFA13
:1016D00089F1059A029802F06BFB38B94146C3457F
:1016E00020D00846FFF78EFFC346D8B11248817953
:1016F00040884143A1EB0A00B0FBF5F0039980B2AA
:101700008CB2ADF80400844200D3044604FB05F615
:101710001FFA89F13346059A0298FFF7FDFC08B1DC
:10172000032098E70598274430440590089887429D
:1017300080D300208FE70000181C002031B500F096
:10174000F7F8044600F0F4F80099001B8842F9D33A
:1017500038BD00002DE9F84FDFF8A091002209F113
:10176000040A0AF1040B4FF00F080BF1040E0126D6
:101770000B6896403340B34271D14C68022C01D0C3
:10178000122C11D1D40800EB84073D6A5407E40EF3
:1017900008FA04FC25EA0C05D1F810C00CFA04FC88
:1017A0004CEA050CC7F820C007685400032591F8DF
:1017B00004C0A5400CF0030CAF430CFA04FC4CEA47
:1017C000070CC0F800C04F68012F05D0022F03D0CE
:1017D000112F01D0122F11D18768D1F80CC0AF435F
:1017E0000CFA04FC4CEA070CC0F808C04768B74381
:1017F0000E79C6F3001696403E434660C668AE4377
:101800008D68A5403543C5604C68E4006FD53C4CFD
:10181000256845F480452560246822F0030504F41A
:1018200080440094374C2E19D6F808789407250F79
:1018300008FA05F4A743344CA04201D100242EE05D
:10184000324CA04201D1012429E0314CA04201D107
:10185000022424E02F4CA04202D103241FE046E0E2
:101860002D4CA04201D1042419E02C4CA04201D1FE
:10187000052414E02A4CA04201D106240FE0294C93
:10188000A04201D107240AE0274CA04201D108243C
:1018900005E0264CA04201D1092400E00A24AC4016
:1018A0003C43C6F80848D9F800404D464E689C4372
:1018B000F60300D51C432C60DAF8004055464E680C
:1018C0009C43B60300D51C432C60DBF800405D460A
:1018D0004E689C43F60200D51C432C60DEF80040A5
:1018E00075464E689C43B60200D51C432C60521CC2
:1018F000102AFFF43CAFBDE8F88F0000003C014027
:101900004438024000300140000002400004024020
:1019100000080240000C0240001002400014024087
:1019200000180240001C0240002002400024024037
:101930000148006870470000140000200248016858
:10194000491C0160704700001400002010B50446D7
:1019500000F00AFA4FF47A71B0FBF1F001F071FA7D
:1019600000222146501E00F097F8002010BD70B5EF
:1019700015460E46040003D094F8210010B107E08C
:10198000012070BD002084F82000204600F020F8DF
:10199000211D2068FFF764FAD4E900023146FFF701
:1019A00046FAD4E900022946FFF729FA60681028B0
:1019B000206808D0016A41F004010162012084F826
:1019C0002100002070BD016841F004010160F5E7CD
:1019D00070B5274886B00024016841F0010101601C
:1019E000006800F00100059021480838016841F0C6
:1019F00008010160016801F008010591016841F0EA
:101A000010010160016801F010010591016841F0C9
:101A1000400101600068032500F04000059040206F
:101A2000CDE900040120CDE90205124E6946304699
:101A3000FFF790FE7015009001A9022081E83100A7
:101A40000C20049069460C48FFF784FE4DF63300E5
:101A50000090694602943046FFF77CFE4FF4F06038
:101A6000009069460548FFF775FE06B070BD00009E
:101A700038380240000C02400018024000100240BA
:101A800000F01F02012191404009800000F1E02098
:101A9000C0F8001170470000F0B40E4B1B68C3F390
:101AA0000223C3F10704042C00D904241D1D072DB3
:101AB00001D2002300E0DB1E012606FA04F56D1EAC
:101AC0000D409D409E40761E164045EA0601F0BC42
:101AD00002F055BA0CED00E02DE9F8431D4801680D
:101AE00041F0805101600068012700F080500090B3
:101AF000380490FAA0F0DFF86080B0FA80F048F87F
:101B00002070FFF715FF04464FF47A75134E04E07A
:101B1000FFF70EFF001BA84213D87068C003F7D56B
:101B20004FF4003090FAA0F0B0FA80F048F820703E
:101B3000FFF7FEFE044607E0FFF7FAFE001BA8428F
:101B400002D90320BDE8F88370688003F4D5002033
:101B5000F8E700004038024000000E4200700040EC
:101B60002DE9F05FDFF8F8A104460F46DAF800002F
:101B7000DFF8F08100F00F02C8B27A49814641F2E5
:101B8000883608F10808BA4261D202468AF8002075
:101B9000DAF8000000F00F00B8427DD1207880070D
:101BA00007D5D8F80020A36822F0F0021A43C8F83D
:101BB00000202078C0072DD0606801281AD00228A4
:101BC0001BD0032819D009688907002964DAD8F8DE
:101BD0000010474621F003010143C8F80010FFF749
:101BE000A7FE0546606801280FD0022818D00328F8
:101BF0001CD027E009688903E7E709688901E4E761
:101C0000FFF796FE401BB04258D83868C0F38100F9
:101C10000128F5D188E0FFF78BFE401BB0424DD87C
:101C20003868C0F381000228F5D17DE03868FFF7FD
:101C30007FFE401BB042F9D940E0FFF779FE401B20
:101C4000B0423BD8386810F00C0FF6D16CE0207829
:101C5000800707D5D8F80020A36822F0F0021A43C5
:101C6000C8F800202078C0074CD06068012828D030
:101C7000022829D0032827D009688907002949DAD2
:101C8000D8F8002022F003020243C8F80020FFF732
:101C90004FFE0546606800E03CE001281DD00228A8
:101CA00029D0032838D0B3464646306810F00C0FD0
:101CB00028D0FFF73DFE411B5945F6D90320BDE86A
:101CC000F09F09688903D9E709688901D6E7FFF71A
:101CD0002FFE411B594502D9F0E7B346464630680E
:101CE000C0F381000128F2D10CE0FFF721FE411B77
:101CF000594502D9E2E7B34646463068C0F3810051
:101D00000228F2D18AF80090DAF8000000F00F0003
:101D1000B84209D00120D2E744462068FFF708FE08
:101D2000401BB042F9D9C9E72078400707D5D8F859
:101D30000010E26821F4E0511143C8F80010207847
:101D4000000708D5D8F80010226921F4604141EA63
:101D5000C201C8F800100F20FFF7F8FD0020AEE721
:101D6000003C02400038024010B500F043F808493A
:101D70000968F02292FAA2F201F0F001B2FA82F2BE
:101D8000D140044A515CC8400349086010BD0000BE
:101D900008380240C27200080000002010B5FFF7AA
:101DA000E3FF074909684FF4E05292FAA2F201F406
:101DB000E051B2FA82F2D140024A515CC84010BDF3
:101DC00008380240C272000810B5FFF7CDFF07497E
:101DD00009684FF4604292FAA2F201F46041B2FA4B
:101DE00082F2D140024A515CC84010BD083802401E
:101DF000C272000830B51948006810F00C0118488C
:101E000012D0184C04290ED008290DD1134A121FE4
:101E10001168136801F03F015D0247F6C07304D5F5
:101E2000B4FBF1F003E0204630BDB0FBF1F01168E7
:101E3000194093FAA3F3B3FA83F3D94048431168E6
:101E40004FF4403292FAA2F201F44031B2FA82F237
:101E5000D140491C4900B0FBF1F030BD08380240C8
:101E60000024F40040787D012DE9F84F0446007805
:101E7000DFF8FCA2BF4DC0074FF0000648D0DAF8EB
:101E800000105046C1F38101012908D00068C0F359
:101E9000810002280AD1281D0068400206D5286862
:101EA000800335D56068002873D031E0DFF8C49234
:101EB00009F1020989F80060FFF73AFD074641F28F
:101EC000883804E0FFF734FDC11B41457AD8286803
:101ED0008003F7D4207989F80000606860B1FFF7CB
:101EE00027FD074604E0FFF723FDC11B4145EDD860
:101EF00028688003F7D50BE0FFF71AFD074604E0DA
:101F0000FFF716FDC11B4145E0D828688003F7D4D0
:101F10002078DFF86492800744D5DAF80010504644
:101F200011F00C0F4FF0F80809D00068C0F38100E1
:101F300002280BD18E48001F0068400206D4286892
:101F4000800714D5E068012823D110E0E068D0B103
:101F50000120C9F80000FFF7EBFC074604E0FFF79B
:101F6000E7FCC01B6428B1D828688007F7D528682B
:101F700098FAA8F22169B2FA82F220F0F8009140B2
:101F8000084328600EE0C9F80060FFF7D1FC07465F
:101F900005E0EAE0FFF7CCFCC01B642812D82868F3
:101FA0008007F7D42078000725D5DFF8C48173486F
:101FB000616908F16C0881B101210160FFF7B8FC8B
:101FC000074605E07EE0FFF7B3FCC01B642879D824
:101FD000D8F800008007F6D50DE00660FFF7A8FCF2
:101FE000074604E0FFF7A4FCC01B64286AD8D8F8B1
:101FF00000008007F6D42078400753D55C4838307D
:10200000016841F0805101600068DFF8748100F0E0
:1020100080500090D8F8001041F48071C8F800108A
:10202000FFF786FC074604E0FFF782FCC01B64282C
:1020300048D8D8F80000C005F6D5DFF834B10BF168
:10204000680B8BF80060FFF773FC074641F2883895
:1020500004E0FFF76DFCC11B41457ED8DBF80000B2
:102060008007F6D4207A8BF80000A06868B1FFF7EB
:102070005FFC074604E0FFF75BFCC11B41456CD8E1
:10208000DBF800008007F6D50CE0FFF751FC0746AF
:1020900004E0FFF74DFCC11B41455ED8DBF80000B2
:1020A0008007F6D4A069E8B3DAF80010C1F3810123
:1020B00002295AD0022806D0C9F86060FFF738FC20
:1020C00004464DE049E04F46C9F86060FFF730FC38
:1020D000064604E0FFF72CFC801B64283DD82868E6
:1020E0008001F7D4D4E90701084347F6C07191FA9B
:1020F000A1F1626AB1FA81F18A40A16A4FF0FF331F
:1021000003EB51014FF4403393FAA3F3B3FA83F393
:1021100099400A4310434FF0706292FAA2F2B2FA69
:1021200082F200E01FE0E16A914008431049091F74
:10213000086001203866FFF7FBFB044604E0FFF768
:10214000F7FB001B642808D828688001F7D50AE04F
:10215000FFF7EEFB001B642802D90320BDE8F88FCF
:1021600028688001F4D40020F8E70120F6E7000099
:10217000083802400038024000004742800E4742C3
:102180000070004070B50D46040003D094F82C0098
:1021900010B107E0012070BD002084F82D0020461A
:1021A00000F012F8022084F82C00211D2068FEF7B0
:1021B0007FFED4E900022946FEF7CAFE012084F81A
:1021C0002C00002070BD0000304800B5016887B0C9
:1021D00041F001010160006800F0010005902B480A
:1021E0000838016841F004010160016801F0040150
:1021F0000591016841F008010160016801F00801E2
:102200000591016841F010010160016801F01001C1
:102210000591016841F020010160016801F0200191
:102220000591016841F0400101600068694600F0D5
:10223000400005900D2000900220019001200290A6
:10224000032003900C2004901148FFF783FA4CF20E
:102250000370009069460F48FFF77CFA4FF68370D1
:10226000009069460C48FFF775FA4FF63F00009062
:1022700069460A48FFF76EFA48F23710009069463F
:102280000748FFF767FA07B000BD00003838024082
:1022900000080240000C02400010024000140240FE
:1022A0000018024010B5044690F82C00022809D00E
:1022B000022084F82C002068FEF720FE012084F81C
:1022C0002C00002010BD70B5044690F82C000D467F
:1022D00002280CD0022084F82C002068FEF714FE9F
:1022E0002868022804D0012084F82C00002070BD4A
:1022F0000520F9E72DE9F04790F8202081F85620D5
:10230000828CA1F85420826A0023120E94090C706A
:10231000C2F383044C7002F003028A70826A120CCA
:10232000CA70028D120A0A7190F828204A71C26A96
:102330004FF6FF7A120E0AEA0212CA80C26ACC88ED
:10234000C2F3074244EA1214CC8002F00F020A7270
:10235000828DC2F30722D4094C72C2F380148C72AE
:10236000C2F34014CC72C2F300140C7300264E73F7
:10237000046A4FF00109002C7DD0012CFCD0022C06
:102380007AD02923C2F380144C769206520E01F8BB
:102390001A2F10F8302F0C7844EAD21401F8014BB0
:1023A00002F07F0201F8012B50F8042F120ED4091D
:1023B0000C70C2F341144C70C2F382048C7092070B
:1023C000120FCA7004C8CC78C2F3074244EA9214D0
:1023D000CC70C2F340140C714E7102F001028A718C
:1023E00030F8042CC2F30722D409CC71C2F3801454
:1023F0000C72C2F340144C72C2F300148C72C2F31C
:102400008104CC7202F003020A7310F8042C520803
:102410004A734C4681F80E9050F8082B120E0A743D
:1024200050F8082C120C0AEA02224A8230F8082CD2
:102430004D8AC2F3072215434D8210F8082C12066C
:1024400041F8142F50F8042C0D68120E45EA024290
:102450000A6050F8042C0D68C2F3074245EA0222D4
:102460000A6030F8042C0D68C2F30722154320C11E
:1024700010F8042C01E034E076E001F8012B02684A
:10248000120E01F8032B0268120C12060A60028871
:102490000D68C2F3072245EA02420A6002780D681D
:1024A00045EA02220A6042680D6845EA126520C1C9
:1024B00042680D78C2F3074245EA121501F8025B43
:1024C0001207120D0A8082880D88C2F30722154375
:1024D00021F8025B0079400808704C701846BDE88E
:1024E000F0879207120D0A6190F82C200C6944EADB
:1024F00082020A61026B0C69120E44EA92140C61AA
:10250000C2F3C2040C7502F007024A75026BC2F3F3
:10251000074254098C75C2F38204CC759207520F9E
:102520000A76028E0C7EC2F3072244EAD2140C769D
:102530000C690F7EBF1C09FA07F5641CA4FB057823
:102540004FEAE57C06FB058504FB0C5591F808C0B5
:1025500009FA0CF4A7FB04C80C6505FB048407FB0F
:102560000644C1E912C40DE790F82C209206920AA5
:102570000A61026B0C69120E44EA02220A61026BC4
:102580000C69C2F3074214430C61028E0C69C2F35A
:102590000722641C46F10005ED0445EA5435E404C5
:1025A000C1E912454FF400740C65EBE670B586B0D6
:1025B00000250E4604468DF80C50057700F046F8CD
:1025C00076200095CDE901502B462A462946206801
:1025D00002F060F8204602F097FB8DF80C009DF8A1
:1025E0000C0038B9204602F083FA8DF80C009DF8F3
:1025F0000C0018B19DF80C0006B070BD31462046A5
:10260000FFF778FE8DF80C009DF80C00A0B9B6F825
:102610005400694600040090072001904020CDE955
:10262000020500010490206802F04DF807212046C1
:1026300002F0D0F88DF80C0004F1100007C88DE806
:10264000070094E80F0002F025F8D3E71D4800B515
:10265000016887B041F400610160006800F4006027
:10266000059018481438016841F480010160016840
:1026700001F480010591016841F0040101600168E5
:1026800001F004010591016841F008010160006852
:10269000694600F0080005904FF4F85000900220C1
:1026A000019001200290032003900C200490064822
:1026B000FFF750F80420009069460448FFF74AF8F5
:1026C00007B000BD4438024000080240000C024040
:1026D0002DE9F04F8BB004460D46DDE914782168F2
:1026E00000201646C862216A022903D10F02560A49
:1026F00046EAC3561021CDE9007140218346080106
:102700000291CDE903B06946206801F0DCFF102199
:10271000204602F05FF800286DD14FF0FF3A08FB29
:1027200007F0CDE905A007A990204FF0020981E844
:10273000010A01200A9005A9206801F089FFB8F17B
:10274000010F01D9122000E01120CDE90060694697
:10275000206801F0B8FFB8F1010F1AD91221204604
:1027600002F038F8070046D140F22A3B2068416B5E
:1027700011EA0B0F28D1406B0004F7D50026206822
:1027800001F09EFF45F82600761C082EF7D3203571
:10279000ECE71121204602F01DF807002BD140F292
:1027A0002A6B2068416B11EA0B0F0DD1406B0004BE
:1027B000F7D50026206801F083FF45F82600761C37
:1027C000082EF7D32035ECE7406BC0050CD5B8F1E7
:1027D000010F09D9206A18B1012801D0022803D1BC
:1027E000204600F033F807462168486B000705D5FE
:1027F0000820886304200BB0BDE8F08F486B800789
:1028000003D54846C1F83890F5E7486B800603D5F4
:10281000202088630620EEE7486B800504D54FF43E
:10282000007088630720E6E7564603E001F048FFA2
:1028300001C5761E2068416B890201D5002EF5D1B5
:10284000216840F2FF5088633846D4E710B586B05F
:10285000044600200C21CDE900014021CDE9021001
:10286000080104906946206801F02DFF0C212046E4
:1028700001F0B0FF06B010BDFEB50446006A0025A9
:102880000E46032805D030B1012804D0022802D01A
:102890001FE02720FEBDB6F5805F05D0B6F5006FBE
:1028A00004D03EB1262514E0272512E0204602F090
:1028B00066FB02E0204602F029FB050009D1211D3C
:1028C000D4E905070EC9CDE900600297206801F040
:1028D000E1FE2846FEBD2DE9F04F8DB006460025ED
:1028E0000C468DF82C50DDE91698316817462846BD
:1028F000CD62316A4FF4007B022903D1570AD946D1
:1029000047EAC3571021CDE90091402182460801D2
:102910000291CDE903A06946306801F0D4FE102190
:10292000304601F057FF00286ED1B8F1010F01D9F0
:10293000192000E01820CDE900706946306801F0E8
:10294000C2FEB8F1010F01D9192100E0182130466B
:1029500001F040FF00287FD1411E09FB08F99020BB
:10296000CDE906900591CDF820A00120CDE909A080
:1029700005A9306801F06CFEB8F1010F24D84FE0D2
:10298000406B400420D5A9EB0500202811D2810717
:102990004FEA900000D0401C8246002706E0214606
:1029A000306801F0A0FE241D2D1D7F1C57450BD261
:1029B000F5E7002704EB8701306801F094FE7F1CE7
:1029C000082FF7D3203420353068416B40F21A329B
:1029D0001142D5D02AE0406B400421D5A9EB050077
:1029E000202812D281074FEA900000D0401C824676
:1029F000002706E02146306801F075FE241D2D1DDC
:102A00007F1C57450CD2F5E726E0002704EB870131
:102A1000306801F068FE7F1C082FF7D32034203582
:102A20003068416B40F21A621142D4D0406BC0054D
:102A30000BD5B8F1010F08D9306A18B1012801D0BF
:102A4000022802D13046FFF701FF3168486B0007CA
:102A500005D50820886304200DB0BDE8F08F486BD1
:102A6000800702D502208863F6E7486BC00603D5CD
:102A7000102088630520EFE7486B800503D5C1F877
:102A800038B00720E8E740F2FF5088630BA93046D2
:102A900002F09CF80028DFD19DF82C100729F5D012
:102AA0000629F3D0D8E770B5040004D094F851009B
:102AB000002510B106E0012070BD84F8505020467A
:102AC00000F034F8022084F851002068016821F0F9
:102AD00040010160D4E901010843D4E90312114324
:102AE000084361690843218B01F400710843E169DF
:102AF0000843216A0843A16A084321680860A06965
:102B0000042101EA1040616A084321684860216895
:102B1000E06A08612068C16921F40061C1616565EE
:102B2000012084F85100002070BD0000124800B55B
:102B3000016887B041F020010160006800F02000CA
:102B400005900D481430016841F48011016000685F
:102B5000012100F4801005904FF460700090022075
:102B6000CDE9010103900520049069460348FEF772
:102B7000F1FD07B000BD00003038024000140240F3
:102B80002DE9F843044690F85100DDF82080012833
:102B900001D022287ED169B162B15BB194F85000B6
:102BA000012877D0012784F8507094F8510001284B
:102BB00003D005E00120BDE8F883322084F85100FD
:102BC00000266665A263A387E3872163A386E38665
:102BD000A664E664A06A4FF40055A84209D12068B3
:102BE000016821F4005101602068016841F400513E
:102BF000016020680168490603D4016841F0400182
:102C00000160E0684FF48271B0F5006F606807D032
:102C1000002867D088426ED1E08E012862D06AE039
:102C200020B188420CD1E08E012809D1206B2168A7
:102C30000088C860206B801C2063E08E401EE08608
:102C4000E08E80B9A06AA84244D12068016841F4AE
:102C5000805101603EE02068C068A16B0880A06BD5
:102C6000801CA0639EE0434600220221204602F021
:102C700051FA002874D1206B21680088C860206B4D
:102C8000801C2063E08E401E0004000CE08609D109
:102C9000A06A00E0C7E0A84204D12068016841F4BE
:102CA00080510160434600220121204602F032FAA1
:102CB00000286FD12068C068A16B0880A06B801CC1
:102CC000A063E08F401EE087E08E0028CBD16068D3
:102CD00000286AD1434600220121204602F01AFA58
:102CE000F0BBB8E7206B411C216321680078C86005
:102CF000E08E401EE086E08E98B9A06AA84204D11A
:102D00002068016841F4805101604346002201219E
:102D1000204602F0FFF918BB2068C068A16B08705C
:102D200040E0434600220221204602F0F3F9B8B900
:102D3000206B411C216321680078C860E08E401E32
:102D40000004000CE08607D1A06AA84204D12068E4
:102D5000016841F48051016000224346012100E0F6
:102D600018E0204602F0D6F9A0B92068C168A06B2F
:102D7000421CA2630170E08F401EE087E08E0028B5
:102D8000CFD1606888B9434600220121204602F075
:102D9000C1F908B103200EE72068C168A06B421C8E
:102DA000A2630170E08F401EE087A06AA84210D1A4
:102DB000434600220121204602F0ACF918B1606DB3
:102DC00040F002000FE02068C068ADF80000BDF8D8
:102DD0000000434601228021204602F09BF920B1E9
:102DE000606D40F020006065D4E784F85170206881
:102DF0008168A26AC1F30011AA4210D179B1616D54
:102E000041F002016165016821F400510160206810
:102E1000016841F40051016084F85060CAE684F80A
:102E200050600020C7E60220C5E64FF0E0210428EC
:102E3000086903D020F004000861704740F00400E6
:102E4000FAE710B5401EB0F1807F01D3012010BD1C
:102E50004FF0E02460610F21601701F090F800202E
:102E6000A06107202061002010BD704738B50168BF
:102E700004460868CA68C0F3000002F4807238B1E2
:102E800032B1086848680090E06B40F00100E063F0
:102E900008684A69C0F3400002F0010238B132B15B
:102EA000086848680090E06B40F00400E063086840
:102EB0004A69C0F3800002F0010238B132B10868FB
:102EC00048680090E06B40F00200E06308684A69DF
:102ED000C0F3C00002F0010238B132B1086848689E
:102EE0000090E06B40F00800E0630868C968C0F338
:102EF000401001F0200118B111B1204602F07EFA15
:102F000020680168C068C1F3C01100F0800019B1E9
:102F100010B1204602F080FB21680868CA68C0F33F
:102F2000801002F04002012568B162B1CA682046F3
:102F300022F04002CA6094F8391032290CD080F88F
:102F4000395000F0EDF8E06B002804D084F83950D7
:102F50002046FFF78AFF38BD222180F83910F0E7BC
:102F600070B5040004D094F83900002510B106E0D3
:102F7000012070BD84F83850204600F021F802206E
:102F800084F839002068C16821F40051C1602046EE
:102F900002F088FA2068016921F4904101612068FB
:102FA000416921F02A0141612068C16841F4005162
:102FB000C160E563012084F83900002070BD000085
:102FC00030B504460068204987B0884239D11F488F
:102FD000016841F001010160006800F00100059006
:102FE0001A481430016841F01001016000680121A5
:102FF00000F0100005904FF4007000900220CDE921
:10300000010103900720124D049069462846FEF7FF
:10301000A1FB2815009069462846FEF79BFB206817
:10302000C16821F04001C1602068C16841F0200101
:10303000C1602520FEF724FD032211462520FEF75E
:103040002BFD07B030BD00000010014030380240B9
:10305000000002402DE9F047044690F839009946F7
:103060000D46012801D0122857D125B31AB394F880
:103070003800012851D0012684F838600027E76322
:1030800094F83900122819D0222084F83900A2853A
:10309000E2854FF48058E08D4B46401EE085A068E5
:1030A0004FF0000240454FF02001204616D102F0BB
:1030B000E6FAB0B904E00120BDE8F0873220E4E789
:1030C000206900282068406803D0C1B225F8011BA0
:1030D00012E0C0F3080125F8021B0DE002F0CFFA60
:1030E00008B10320E8E7206900282068406801D083
:1030F00000F07F0005F8010BE08D0028CBD194F89B
:103100003900322805D084F8396084F838700020FE
:10311000D2E7122084F83900F7E70220CCE77047A5
:103120007047FEE770B50D4C0025C4F890520C486E
:10313000016821F440610160016841F4806101602F
:10314000C4F89452022004F5247403F0D1FE012047
:103150002060022003F0CCFE256070BD0080434259
:10316000001C024070B50D4C0026C4F890620C485B
:10317000016821F440610160016841F480610160EF
:103180000125C4F89452022004F5247403F0B0FE23
:103190002560022003F0ACFE266070BD0080434233
:1031A000001C02402DE9F0478146164800240168C2
:1031B00021F44061016001680160134E25462746F5
:1031C0004FF00108C6F89072022003F091FEC6F895
:1031D00090826006040ED6F8140208B1641CE4B2B2
:1031E000012003F085FE6D1CEDB2082DEAD3B9F184
:1031F000000F04D0FFF796FF2046BDE8F087FFF7E9
:10320000B1FFF9E7001C0240008043422DE9F04184
:1032100005461448016821F440610160016841F4E9
:1032200080610160104E0027C6F890723C464FF056
:103230000108E809C6F894026806050E022003F0AA
:1032400057FEC6F89082022003F052FEC6F8907234
:10325000022003F04DFE641CE4B2082CE9D3BDE863
:10326000F0810000001C02400080434270B50D4810
:10327000016821F440610160016841F480610160EE
:10328000094C0120C4F89402C4F89002042004F50B
:10329000247403F02DFE00256560042003F028FE51
:1032A000256070BD001C02400080434270B50D488F
:1032B000016821F440610160016841F480610160AE
:1032C000094C0020C4F89002C4F89402042004F5CC
:1032D000247403F00DFE01252560042003F008FE90
:1032E000656070BD001C02400080434270B512480A
:1032F0000024016821F440610160016801600F4D04
:103300000126C5F89462304603F0F2FDC5F89062DC
:10331000012003F0EDFD07E0641CE4B2FA2C03D9B0
:10332000FFF7C4FF012070BDD5F814020028F3D1C7
:10333000C5F8900270BD0000001C024000804342AE
:10334000F0B500230A24302537261F4610E0B4EBE1
:10335000107F02D905EB107C01E006EB107C01F830
:1033600013C001EB430C00015B1C8CF80170DBB255
:103370009342ECD3F0BD000070B50E4905460E4CEB
:10338000087B38B9886828B1607818B901212846C7
:10339000FDF7D1FA81212846FDF7CDFA60780228A1
:1033A00007D12846BDE870401F23024A0121FDF7DE
:1033B00098BA70BD80C40220940000202DE9F0412D
:1033C000294E074606F1200570686860B068A8605D
:1033D0000121384602F020FB244C1F280CD124493F
:1033E0003068884208D12348717B0078814203D835
:1033F000B07B08B1102807D9707B2022052101F08D
:1034000079F80220607006E0174A38460F3200F063
:1034100015FE002804DA3846BDE8F041FFF7ACBFDE
:10342000207802281ED001281CD003281AD06188D9
:1034300091B1B368626838468B4200D219468BB2AC
:10344000A968C91AA9600021297304212170BDE867
:10345000F0418121FDF78BBA3846BDE8F0410021EB
:1034600000F096B8BDE8F08180C4022094000020EE
:1034700055534243C800002010B5094C6278022A17
:1034800008D009060BD5012A09D0BDE8104001215A
:1034900000F07EB88121FDF74EFA0020607010BD6B
:1034A0009400002010B504460C480178022905D08C
:1034B000032901D0042910D1002109E0084800F1B6
:1034C0000F02417B204600F0B9FD002805DA0121FA
:1034D0002046BDE8104000F05BB810BD940000200D
:1034E00080C4022010B504460C48017881B101293E
:1034F00013D10B4800F10F02417B204600F09EFDE6
:1035000000280ADA2046BDE81040012100F040B84A
:103510002046BDE81040FFF751BF10BD94000020C9
:1035200080C40220014900200870704794000020E8
:1035300010B504460C480021017041700B4800682A
:1035400001680020884701212046FDF7A0F981216C
:103550002046FDF79CF920461F23BDE81040044A91
:103560000121FDF7BEB90000940000207801002081
:1035700080C40220044900221F230A7001224A70DD
:10358000024A0121FDF7ADB99400002080C4022059
:1035900010B50C4A04460A48106011730A4900200D
:1035A0000D23087081212046FDF7E1F9054A2046E8
:1035B0001F23203ABDE810400121FDF792B9000019
:1035C00055534253A0C4022094000020FEE700009F
:1035D0002DE9F84F1C4600230A9E17460D46ADF80C
:1035E000003062498979B0FBF1F2B5FBF1F1D20705
:1035F000B2EBC17F7DD1DFF87891984689F80080E1
:10360000DFF870B18BF800808BF800808BF8000039
:10361000020A8BF80020000C8BF80000352089F896
:103620000000002000F0AAFB20B9012000F0A6FB5A
:10363000010002D00220BDE8F88F852289F8002021
:103640008BF800703A0A8BF800208BF800502A0A99
:103650008BF800202A0C8BF800201E2000F0CEF8FA
:10366000F0054FF000450ED0404605E014F8010B80
:103670002870BDF80000401CADF80000BDF8000047
:10368000B042F3D364E0760A7A0A4FF02043C24690
:103690004FF4007C354F27E0D3F8800040F0400025
:1036A000C3F88000504605E014F8010B2870BDF8FF
:1036B0000000401CADF80000BDF800006045F3D3E9
:1036C000D3F884004006FBD5D3F8940001EB020840
:1036D00007EB8808C8F81C00D3F8800020F04000F1
:1036E000C3F88000491CC9B2B142D5D379881020F3
:1036F00000E037E000EB82000844ADF800001E2037
:1037000000F07CF8852189F80010BDF800008BF8E6
:103710000000BDF80000000A8BF800001E2000F039
:103720006DF807EB8201ADF800A01C310CE0002021
:1037300011F8012B2A70401CC0B20428F8D3BDF840
:103740000000401CADF80000BDF80000B042EED310
:10375000102089F80000C82003F0CAFB00F0FCFA32
:10376000402801D0012066E7002064E7181C0020F3
:1037700000000180000002802DE9F0410C461C4948
:103780008979B0FBF1F2B4FBF1F1D207B2EBC17F62
:1037900029D1184F00263E70174D2E702E702870BC
:1037A000010A2970000C287035203870304600F06E
:1037B000E5FA18B9012000F0E1FA10B10220BDE8E5
:1037C000F081852038702E702E702C70200A2870A1
:1037D000200C287010203870C82003F089FB00F0FE
:1037E000BBFA402801D00120E9E70020E7E700000C
:1037F000181C0020000001800000028001B5009824
:1038000001E0401E00900028FBD108BD2DE9F041E9
:10381000054690460E46012000F042F80446314627
:10382000002000F03DF807464146012000F038F83E
:1038300006464146002000F033F884EA0702724051
:103840004240A2F57060FF3805D00AA0FCF7C6FD23
:103850000120BDE8F081744021460DA0FCF7BEFDBB
:10386000E10804F00703685C01229A405040685464
:103870000020EEE73262697420656363206572722E
:103880006F72206F72206D6F72650D0A000000006C
:103890006572726F72706F733A25640D0A000000D2
:1038A00070B5054600200C460246012602F00101D3
:1038B000A94208D124FA02F1C90704D0510806FA36
:1038C00001F3184480B2521CD2B2182AEED370BD54
:1038D000104910B50969104A914201D1C00103E0B5
:1038E0000E4A914200D180010D4A602111700D49AC
:1038F0000870030A0B70000C0870D02010700420B0
:1039000003F0E8FA00F028FA402801D0012010BDA9
:10391000002010BD181C002089260048569590DC18
:10392000000001800000028010B5274888B02549BA
:1039300001604FF480714160002181604FF4C0222A
:10394000C160C0E9041281610121C161022003222A
:10395000CDE90402CDE90601CDE90002CDE902017D
:103960006A4604A91848FEF702F800F0E7F9642057
:1039700003F0B0FA00F048F8134C3834206104200A
:1039800000F028F8114B4FF48052206951109842F2
:1039900007D14FF4875020806280E020A0808020F3
:1039A00008E00B4B98420BD14FF4046020806180FB
:1039B0004020A080A07121816281002008B010BD4C
:1039C0000120FBE7600000A0E01B002089260048E2
:1039D000569590DC0A4A00B5EF211170094A012181
:1039E0001170C9070870002008700870087000F096
:1039F000B3F9402801D0012000BD002000BD000027
:103A000000000180000002800CB50F499020087072
:103A10000E4900200870880301788DF800100178A5
:103A20008DF8011001788DF8021001788DF80310DF
:103A300000788DF80400DDF801009DF8041000BA4C
:103A400020F0FF0008430CBD000001800000028050
:103A50002DE9F84F4FF000081C461546824689466E
:103A6000ADF80080744A474682F8008073480170C0
:103A7000090A017080F800A04FEA1A2101704FEA8C
:103A80001A41017030201070002000F077F918B949
:103A9000012000F073F910B10220BDE8F88FE205B3
:103AA0004FF000410ED0404605E0087805F8010BC4
:103AB000BDF80000401CADF80000BDF80000A042B9
:103AC000F3D3B2E0660A4FEA5924AB464FF02042E6
:103AD000DFF86CE14FF4007C2AE0D2F8801041F06E
:103AE0004001C2F880100021ADF800104FF00043F3
:103AF00007E0197805F8011BBDF80010491CADF866
:103B00000010BDF800106145F3D3D2F884104906C7
:103B1000FBD5D2F8943000EB04080EEB8801CB61A2
:103B2000D2F8801021F04001C2F88010401CC0B2D1
:103B3000B042D2D3BEF80200102101EB8401084448
:103B40007546ADF800002320FFF758FE3A480521DE
:103B50000170BDF8002039490A70BDF80020120A32
:103B60000A70E02101701920FFF748FE002205EBE2
:103B70008400ADF800204FF000433C3007E0197896
:103B800000F8011BBDF80010491CADF80010BDF88D
:103B90000010B1EB860FF2D3ADF8002041E0BDF884
:103BA0000000BDF80010204405EB8000C06B2144EC
:103BB00005EB8101C96988422ED0BDF80000204480
:103BC00005EB8000C26BBDF80000204405EB8000CF
:103BD000C1691CA0FCF702FC224631461FA0FCF77D
:103BE000FDFB4A46514623A0FCF7F8FBBDF8000058
:103BF000204405EB8000C269BDF80000BDF800302C
:103C0000204405EB8000C16B0BEB4320FFF7FEFD6A
:103C100008B1042700E00327BDF80000401CADF800
:103C20000000BDF80000B042B9D300F095F840287C
:103C300000D00127384630E70000018000000280F4
:103C4000181C00206572722068642C72643A307807
:103C500025782C307825780D0A0000006563636EA6
:103C6000756D2C65636373746172743A25642C25D9
:103C7000640D0A00506167654E756D2C436F6C4E84
:103C8000756D3A25642C25640D0A0000F0B51D46BB
:103C9000164B0024059F16461C70154A1170090A20
:103CA00011701070010A1170000C10703020187023
:103CB000204600F063F818B9012000F05FF808B161
:103CC0000220F0BD4FF0004004E00168B14203D192
:103CD000641CA4B2AC42F8D33C8000F03DF840280C
:103CE00001D00120F0BD0020F0BD000000000180E7
:103CF0000000028030B4064D2C79641AE4B2A3426D
:103D000000D923466C88214430BC89B2FFF7A0BE9D
:103D1000181C002008B500208DF80000064970200E
:103D200008701920FFF76AFD4FF0004000788DF809
:103D300000009DF8000008BD00000180054900B5A5
:103D4000FF20087000F008F8402801D0012000BDD5
:103D5000002000BD0000018008B500206FF0604227
:103D60000090FFF7D7FF400606D40098401C009053
:103D70009042F6D3022008BD402008BD01B581B0B5
:103D80000020009009486FF07E41009A521C00927A
:103D9000D0F818229DF804309A4201D100200CBDC1
:103DA000009A8A42F1D301200CBD000000804142FC
:103DB0002DE9F84F4FF000081D46ADF80080DFF800
:103DC0003CA1802644468AF80060DFF834B18BF8C5
:103DD00000100E0A8BF800608BF80000060A8BF8C2
:103DE0000060000C8BF800001E20FFF707FDE805BF
:103DF0004FF000460FD0ADF8008007E012F8010B3D
:103E00003070BDF80000401CADF80000BDF80000A7
:103E1000A842F3D362E06D0A490A4FF02043394FBC
:103E2000C1464FF4007C27E0D3F8800040F040000A
:103E3000C3F88000484605E012F8010B3070BDF869
:103E40000000401CADF80000BDF800006045F3D351
:103E5000D3F884004006FBD5D3F8940004EB0108A6
:103E600007EB8808C8F81C00D3F8800020F0400059
:103E7000C3F88000641CE4B2AC42D5D37A88102029
:103E800000EB81001044ADF800001E20FFF7B6FCE7
:103E900085228AF80020BDF800208BF80020BDF8AC
:103EA0000020120A8BF800201E20FFF7A7FC07EB6A
:103EB0008101ADF800901C310CE0002011F8012BBD
:103EC0003270401CC0B20428F8D3BDF80000401C7A
:103ED000ADF80000BDF80000A842EED310208AF82B
:103EE0000000C82003F004F8FFF736FF402802D096
:103EF0000120BDE8F88F0020FBE7000000000180F2
:103F000000000280181C002070B5124E1D460024CF
:103F100080233370104B1970090A19701870010A48
:103F20001970000C18701E20FFF768FCF00302E007
:103F30000260641CA4B2AC42FAD310203070C820D6
:103F400002F0D6FFFFF708FF402801D0012070BD26
:103F5000002070BD000001800000028030B4064DDA
:103F60002C79641AE4B2A34200D923466C88214418
:103F700030BC89B2FFF71CBF181C0020704709072E
:103F8000090E002806DA00F00F0000F1E02080F8AA
:103F9000141D704700F1E02080F800147047000005
:103FA000014801F01FBE00009C01002010B5FFF782
:103FB0005DF94120FFF72AF9FFF798F90020FFF794
:103FC000F1F80446FFF772F9204610BD70B50C46B3
:103FD0000546FFF7EBFF0122AA402CB10243D0B205
:103FE000BDE8704000F002B89043F9E710B5044610
:103FF000FFF73CF94020FFF709F9FFF777F9204672
:10400000FFF704F9FFF772F9FFF750F9BDE8104028
:104010000A2002F05FBF70471144074A00B552F80A
:104020002020914206D92122052100F063FA4FF0A9
:10403000FF3000BD002000BDD0C402202DE9F041BA
:104040000B464E490024661EC8604E4910784C4D00
:104050000968232873D010DC1A285AD008DC4A4F8C
:10406000D7F800C0C8B103282FD0122811D132E0F0
:104070001B284BD01E280CD148E02A2871D004DC24
:10408000252862D0282804D165E02F286FD05A282F
:1040900049D02022052118460FE03C481F46816880
:1040A00019B12022407B052107E0DCF808101846F2
:1040B000884738B13A220221384600F01BFA3046D0
:1040C000BDE8F0812C800020FAE7BDE8F041114600
:1040D000184600F0DBB95078C00702D02C4B0720FF
:1040E0000BE0DCF81C0003EBC30300EB8303127945
:1040F0001879401D824200D81046288003E0401EF7
:1041000080B21A5C0A540028F9D115E020462C80B0
:10411000D6E708201F4A2880401E0004000C135CCC
:104120000B54F9D108E008201B4A2880401E0004E7
:10413000000C135C0B54F9D12046C1E7FFE7BDE842
:10414000F0411146184600F067B9BDE8F04111464C
:10415000184600F01FB9BDE8F0411146184600F0BE
:10416000BBB8BDE8F0411146184600F005BABDE8FD
:10417000F0411146184600F0D3B90000F0000020CD
:1041800096000020980000207801002080C40220C2
:10419000F8720008FF720008077300082DE9F0416B
:1041A0001F4E80464FF40040B468844200D304465A
:1041B00072680027B4FBF2F085B2D6E904013B46F1
:1041C000FCF795F8024617482B46174D00682968FA
:1041D000D0F810C04046E047002807DA1122042139
:1041E000404600F087F9781EBDE8F0812346812122
:1041F0002A68F068FCF7BBFBD6E90410091978417E
:10420000C6E90410B0680949001BB0608A68A2EBD7
:1042100004028A6002D10649032008700020E3E707
:10422000F00000207801002098000020A0C40220A7
:10423000940000202DE9F047234F4FF400458146BC
:10424000BC68AC4200D32C467A684FF00008B4FB3F
:10425000F2F086B2D7E904014346FCF748F802467B
:104260001A4833461A4E00683168D0F814C04846E0
:10427000E047002808DA03220421484600F03AF912
:104280004FF0FF30BDE8F087D7E90420121940EB6A
:104290000800C7E90420B8680E49001BB8608A68A6
:1042A000A2EB04028A600AD0A84200D3284683B257
:1042B00001213268F868FCF714FB0020E2E70021D6
:1042C000F868FFF765F9F8E7F000002078010020B2
:1042D00098000020A0C402202DE9F047284F814615
:1042E0000C463878F0BB274D4FF0FF38287B00068E
:1042F00036D52548006881684846884728B13A2263
:104300000221484600F0F6F813E0D4F802001F4EF0
:1043100000BA20F0FF0160790143C817C6E9041014
:10432000B4F8070042BA4846B260FFF775FE0028AD
:1043300002DA4046BDE8F08702203870D6E904135F
:1043400070680022A1FB004703FB007301FB0231F0
:10435000C6E90441B1684143B160A868884205D00C
:10436000687B00E002E020220521CBE708494FF4FA
:10437000004008804846BDE8F047FFF70FBF000047
:104380009400002080C4022078010020F00000206A
:104390009600002070B504461B481A4D1B4A006861
:1043A00005EB840143682046984738B13A22022140
:1043B000204600F09FF84FF0FF3070BD55F8240004
:1043C000401E020E124801680A7055F82400401E73
:1043D000000C487035F82400401E000A887015F85B
:1043E0002400401EC8700948001F4068020E0A7170
:1043F000020C4A71020A8A71C871064908200880B5
:10440000002070BDD0C4022078010020F4000020FC
:1044100098000020960000207CB5194C054600212C
:10442000226808465054491C89B20C29FAD3154811
:104430006A4601A9006843682846984738B13A227D
:104440000221284600F056F84FF0FF307CBD20686E
:104450000821C1700199491E0A0E02710A0C4271AD
:104460000A0A8271C1710221017200990A0C42721A
:104470000A0A8272C17204490C20088000207CBDA7
:1044800098000020780100209600002070B5154AA1
:104490000020034612681354401CC0B21228FAD3FD
:1044A00070201070104D0C20D07128786C78A042CC
:1044B0000FD00E4C14F8306004EBC004967066798F
:1044C0001673401C2479C0B254732870042800D19C
:1044D0002B70074A122010800879122800D810800B
:1044E000002070BD98000020F0000020B0C4022021
:1044F0009600002010B5094C074B607803F8301087
:10450000110203EBC002401CC0B25160607004286D
:1045100001D10020607010BDB0C40220F000002066
:1045200070B5054648784FF0FF34800705D5242242
:1045300005212846FFF7DEFF14E0D1F8020000BA9B
:1045400020F0FF03487903430948DA17C0E9043231
:10455000B1F807104ABA826019462846FFF75CFD99
:10456000002801DA204670BD02490020088070BD95
:10457000F0000020960000202DE9F0472F4F8146E3
:104580000C46387820B14846BDE8F047FFF752BEE8
:104590002B4D4FF0FF38287B00063CD4294E306865
:1045A00081684846884720B13A2208E0FFF7A2FF19
:1045B0001CE03068C1684846884718B127220221AC
:1045C0004846F3E7D4F802001F4E00BA20F0FF017E
:1045D00060790143C817C6E90410B4F8070042BA6D
:1045E0004846B260FFF718FD002802DA4046BDE8F1
:1045F000F087D6E9041270680023A1FB004C02FB8F
:1046000000C201FB0321C6E90441B1684143B16026
:10461000A868884203D02022687B0521C6E70120D4
:104620003870C003814200D3014608488BB2012193
:104630000268F068FCF755F90020D8E794000020E4
:1046400080C4022078010020F000002098000020A3
:104650000A6842624A688262D1E902231A43D1E9B8
:1046600004310B43C16A1A4321F0F7011143C162BF
:10467000002070470069C0B27047006800F0030076
:104680007047000008B5024908440090006808BD62
:10469000142C014070B50DF1100C11439CE8700012
:1046A0002343194329434268314347F6FF639A4342
:1046B0000A434260002070BD032101600020704762
:1046C000D0F8800070470A688260D1E901231A435C
:1046D000D1E903310B43C1681A436FF30B01114356
:1046E000C160002070470968C0F880100020704742
:1046F00000B5164887B014490022C0E90012012114
:10470000816008211023C0E90313402343614FF463
:10471000C073C0E906320A0202624A0242628A0299
:1047200082620220CDE9000106210291CDE9031049
:104730000590069069460548FDF724FD034800F002
:1047400007F807B000BD0000400100A09808002055
:1047500010B5002301221146184600F021F84FF44D
:10476000FA7002F0C5FB002301220221184600F076
:1047700017F8002308220321184600F011F84FF41F
:104780000C7301220421002000F00AF8BDE810405B
:1047900040F2AB210148FDF785BD000098080020DC
:1047A0001FB5002410B1012802D002E0102400E05F
:1047B0000824CDE90014CDE902234FF48052694664
:1047C0000348FDF780FD002800D0012004B010BD93
:1047D0009808002070B5044600680E460025416B1D
:1047E00011F0450FFBD0416B490703D5032104228B
:1047F000826304E0416BC90703D00121816308464D
:1048000070BDFFF737FFB0422BD1216840F2FF5057
:1048100088630020FFF736FF284908424BD0002864
:1048200001DA1C2070BD410001D5092070BD810056
:1048300001D50A2070BDC10001D50B2070BD01015A
:1048400001D50C2070BD410101D50D2070BDC10105
:1048500001D50E2070BD010201D50F2070BD4102AF
:1048600001D5102070BD810201D5112070BDC1029B
:1048700001D5122070BD010301D5132070BD410385
:1048800001D5142070BD810301D5152070BDC10371
:1048900001D5162070BD010401D5172070BD41045B
:1048A00001D5182070BD810401D5192070BD000705
:1048B00001D51A2070BD284670BD000008E0FFFD3C
:1048C0000146002009684A6B12F0450FFBD04A6B85
:1048D000520702D50320042207E04A6BD20702D018
:1048E00001208863704740F2FF528A6370472DE9C8
:1048F000F0410446006815460E460027416B11F052
:10490000450FFBD0416B490703D503210422826385
:1049100004E0416BC90704D0012181630846BDE86A
:10492000F081FFF7A7FEB04212D1216840F2FF509C
:1049300088630020FFF7A6FE10F4604F03D08104C7
:1049400004D51320EBE7000C288007E0410401D5D3
:104950001020E4E7000401D50F20E0E73846DEE749
:104960000246292012684FF48031536B13F045033F
:1049700007D0012305E0536B13F0450300D001235A
:10498000491E0BB90029F6D1536BC3F3800301B163
:1049900013B10320042104E0516B490602D5002025
:1049A0004021916370472DE9F04F8DB000250F46EF
:1049B0000B9508261021CDE9006140210C95044695
:1049C000CDE9021508010490A84669462068FFF762
:1049D0007AFE10212046FFF7FDFE002844D1A08C6E
:1049E000694600040090372001902068FFF76BFEB5
:1049F00037212046FFF7EEFE002835D1401ECDE9D5
:104A0000050630204FF00209CDE907090120CDE964
:104A10000980B246464605A92068FFF719FE3320F3
:104A2000CDE9006069462068FFF74DFE332120463E
:104A3000FFF7D0FE060017D10DF12C0840F22A6BCB
:104A40002068416B11EA0B0F08D1416B8902F7D541
:104A5000FFF736FE48F825006D1CF1E7416B0907AA
:104A600005D5C0F838A004200DB0BDE8F08F416B2B
:104A7000890703D5C0F838904846F5E7416B8906A9
:104A800003D5202181630620EEE7416B890504D51B
:104A90004FF4007181630720E6E740F2FF51816324
:104AA0000B9800BA78600C9800BA38603046DBE7A3
:104AB0000E4810B50C490160002141608160C16061
:104AC00001614161816100F16001FDF76FFD08B195
:104AD000012010BD4FF400610448FDF7CDFE002811
:104AE000F7D0022010BD0000002C0140D0080020AB
:104AF00070B586B004460120ADF81400002520688A
:104B0000FFF7BBFD58B3206A04285DD000200221C6
:104B1000C0268DE84300039048020490694620684F
:104B2000FFF7D1FD2046FFF7CBFE050018D1FFF7B8
:104B3000A9FDA0630420FFF7A5FDE0630820FFF7AF
:104B4000A1FD20640C20FFF79DFD6064206A48B140
:104B5000012807D0062805D0022803D011E025201F
:104B600006B070BD03200190402002906946206885
:104B7000FFF7A9FD05AA03212046FFF7B8FE0500AF
:104B8000EED1206A04281FD0BDF814006062000432
:104B900000900920CDE9010669462068FFF793FDE2
:104BA0002046FFF78DFE0500DAD1FFF76BFDA0620E
:104BB0000420FFF767FDE0620820FFF763FD206334
:104BC0000C20FFF75FFD60632846C9E770B586B02B
:104BD000044600260D460096A18C090401910D2182
:104BE00002914021CDE903160801059001A9206832
:104BF000FFF769FD2068416B11F0450FFBD0416B59
:104C0000490703D503210422826304E0416BC907ED
:104C100004D001218163084606B070BDFFF72AFD6C
:104C20000D2838D1216840F2FF5088630020FFF73B
:104C300029FD0090C0F343202870324900980842B3
:104C40005DD00098002801DA1C20E5E7400001D57E
:104C50000920E1E70098800001D50A20DCE70098F0
:104C6000C00001D50B20D7E70098000101D50C202A
:104C7000D2E70098400101D50D20CDE70098C00192
:104C800001D50E20C8E70098000201D50F20C3E728
:104C90000098400201D51020BEE70098800201D59F
:104CA0001120B9E70098C00201D51220B4E700989E
:104CB000000301D51320AFE70098400301D514206D
:104CC000AAE70098800301D51520A5E70098C00346
:104CD00001D51620A0E70098000401D517209BE716
:104CE0000098400401D5182096E70098800401D56B
:104CF000192091E70098000701D51A208CE730466B
:104D00008AE7000008E0FFFD2DE9F04F87B04FF083
:104D1000000904468DF81490DFF870A14F464D4607
:104D20004E46C846CAF8A0900068FFF7C5FC0120AF
:104D3000FCF704FD4FF0010BCAF8A0B0CDE90099D3
:104D4000CDF808904FF48060CDE903906946206863
:104D5000FFF7B9FC226800234FF48030516BC1F398
:104D6000C01104E0516B401EC1F3C0110CD00029EA
:104D7000F8D048B140F2FF5090638DF814309DF8A0
:104D8000140000287DD101E00323F6E74FF4D5702D
:104D9000009008204FF04009CDE9010969462068DC
:104DA000FFF791FC2046FFF7DBFD8DF814009DF81E
:104DB000140018B94FF08048C4F820B04FF0000A32
:104DC0003720CDE900A069462068FFF77CFC372139
:104DD0002046FFF7FFFC8DF814009DF814004FF6F5
:104DE000FF7180B34DE03720CDE900A0CDF80890E9
:104DF0004FF48067CDE903A7564669462068FFF760
:104E000062FC37212046FFF7E5FC8DF814009DF881
:104E1000140088BB1E4948EA010000902920CDE912
:104E20000109CDE9036769462068FFF74CFC20685B
:104E30000021426B12F0450FFBD0426B520703D5A5
:104E40000321042202E00EE040F2FF5282638DF85B
:104E500014109DF8140078B90020FFF713FCC60F5A
:104E600007466D1C00E08B460EB95D45BBD35D4522
:104E700003D31B208DF8140003E0780001D5022035
:104E800020629DF8140007B0BDE8F08F0080254235
:104E9000000010802DE9FC5F924605464FF00008A7
:104EA000CE0D4F02FBF7FBF9A9074FF400701CD0A1
:104EB00000244FF0010B814614E06002C219124930
:104EC000CDE9009B46EBE073A1F1B800FDF700FCD3
:104ED00080464A460C492846FBF728FB641CE4B28E
:104EE00005F500755445E8D309E0CDE9000A064808
:104EF0003A4633462946B838FDF7EAFB8046FBF7C9
:104F0000D0F94046BDE8FC9F8809002030B587B045
:104F100000250446059528460695FFF7B3FB80015A
:104F200002D50E2007B030BD05A92046FFF73BFD96
:104F30000028F7D10698C0031FD5A08C694600044D
:104F40000090372001904020CDE902050001049037
:104F50002068FFF7B8FB37212046FFF73BFC00280D
:104F6000E0D10620CDE9005069462068FFF7ABFB91
:104F700006212046FFF72EFCD4E72520D2E730B5E6
:104F800087B000250446059528460695FFF77AFB6D
:104F9000800102D50E2007B030BD05A92046FFF7DD
:104FA00002FD0028F7D10698400320D5A08C694661
:104FB00000040090372001904020CDE90205000157
:104FC00004902068FFF77FFB37212046FFF702FCA3
:104FD0000028E0D102200090062001906946206858
:104FE000FFF771FB06212046FFF7F4FBD3E72520EE
:104FF000D1E700002DE9FC5F914605464FF000081F
:10500000CE0D4F02FBF74BF9A8074FF400711DD0EE
:1050100000248A464FF0010B15E0D046524629463F
:105020001248FBF783FA6002C2191049CDE9008BE0
:1050300046EBE073A1F1B800FDF74DFC641C80461F
:10504000E4B205F500754C45E7D309E0CDE9001958
:1050500006483A4633462946B838FDF73CFC8046B8
:10506000FBF71FF94046BDE8FC9F000088090020BF
:1050700010B5124C1048022120604FF4827060601D
:105080000020A060C4E90301012161614902A1611E
:105090003821C4E907106062A0620720E062204660
:1050A000FDF701FD2068016841F040010160BDE8A5
:1050B0001040FF2000F004B800500140880B002091
:1050C00001B582B04FF47A700090012301AA02A9C1
:1050D0000248FDF755FD9DF804000EBD880B002029
:1050E0000B4A10B511680B6823F040030B60116880
:1050F0000B684FF6C77423400B6011680B680343BD
:105100000B601068016841F04001016010BD0000B3
:10511000880B00202DE9F0471D4690460F460446B7
:10512000FCF706FC06465FEA08004FF000084FF463
:10513000005A4FF0010926D034E0681C23D025B175
:10514000FCF7F6FB801BA8421DD92068416821F0BE
:10515000E00141602068016821F040010160A06A1F
:10516000504509D12068016821F400510160206890
:10517000016841F40051016084F8519084F8508036
:105180000320BDE8F0872068806837EA0000D4D1AA
:105190000DE0681C06D0002DD7D0FCF7C9FB801BA2
:1051A000A842D2D82068806837EA0000F1D00020F9
:1051B000E7E700004FF4007320B1012806D0022871
:1051C00010D111E04FF4484013600AE013600B4A1D
:1051D000D0899379528858435043C21700EBD2507C
:1051E000401208600020704705481360826CB0F8D8
:1051F0004C00C30543EA5220F3E70000181C0020CE
:10520000300900200448D0E91210014301D00220E7
:1052100070470120704700003009002010B50024BD
:1052200020B1012805D0022809D105E001F0DAFCFF
:1052300005E0FCF7E1F801E0FFF73AFC044660B254
:1052400010BD00000348017841F0100101700020FA
:105250007047000054010020002070472DE9F04104
:10526000154D0E4617462978002441F00201297099
:1052700020B101280BD002281BD10FE04FF6FF70A0
:1052800000EA43227902304601F0EAFC11E04FF4D3
:10529000007239463046FCF72DF904E01A463946CB
:1052A0003046FFF7F7FD44B21CB1287840F0080003
:1052B00028702046BDE8F081540100202DE9F0411E
:1052C000154D0E4617462978002441F0010129703A
:1052D00020B101280BD002281BD10FE04FF6FF7040
:1052E00000EA43227902304601F034FD11E04FF428
:1052F000007239463046FCF795F904E0DAB23946D7
:105300003046FFF777FE44B21CB1287840F0040025
:1053100028702046BDE8F08154010020704700004D
:1053200070B51E4C92B00025266846F08056266067
:10533000246804F080541194194C266846F44046C1
:10534000266024680DF1240C04F4404411940124D7
:1053500000940194022406948CE80D006605CDE9C2
:1053600007616846FCF780FD00B1FEE7FCF7B4FB7F
:1053700000B1FEE70CA90F2081E831004FF4A050E6
:105380000F904FF48050109005210CA8FCF7E8FB1B
:10539000002800D0FEE712B070BD00004038024087
:1053A00000700040FCF7CABA1048016841F470016F
:1053B00001600F48016841F0010101600C4A0021C1
:1053C0000832116002680B4B1A400260031D0A4A42
:1053D0001A60026822F48022026005480C300160E5
:1053E00002495806803908607047000088ED00E0E7
:1053F00000380240FFFFF6FE1030002410B590F890
:105400003910222903D0322901D0022010BD816831
:10541000B1F5805F11D00169002901681FD049688A
:1054200001F07F03816A4A1C82620B70C18D491EA4
:105430000904090CC18518D02FE00269816A002A8D
:105440000268526805D0D2B20A80816A491C816222
:10545000ECE7C2F308020A80816A891CF7E74A6810
:10546000816A4B1C83620A70E0E70168CA6822F017
:105470002002CA6090F83910322910D00168CA6839
:1054800022F48072CA6001684A6922F001024A610E
:10549000012180F83910FDF742FE002010BD1221D5
:1054A000F7E700002DE9F041044600680169E26871
:1054B00021F440510A4302612068C16849F20C623C
:1054C00091432369A268E5691A4363692B431A4330
:1054D0000A43C2602068416921F44072A169114306
:1054E0004161E06964263225B0F5004F484A4949D8
:1054F00020681DD0884201D0904269D1FCF764FC3D
:1055000000EBC00101EB00106168B0468900B0FB00
:10551000F1F1B1FBF8F6FCF757FC00EBC00101EB31
:10552000001061688900B0FBF1F7FCF74DFC68E002
:10553000884201D0904219D1FCF746FC00EBC00133
:1055400001EB00106168B0464900B0FBF1F1B1FB1E
:10555000F8F6FCF739FC00EBC00101EB00106168C4
:105560004900B0FBF1F7FCF72FFC18E0FCF716FC44
:1055700000EBC00101EB00106168B0464900B0FBD0
:10558000F1F1B1FBF8F6FCF709FC00EBC00101EB0F
:10559000001061684900B0FBF1F7FCF7FFFB00EB7E
:1055A000C00101EB001061684900B0FBF1F1B1FBF3
:1055B000F8F06FF01801484307EB800005EB00118D
:1055C000B1FBF8F0216866F31F108860BDE8F08138
:1055D000FCF7E4FB00EBC00101EB00106168B04692
:1055E0008900B0FBF1F1B1FBF8F6FCF7D7FB00EB5B
:1055F000C00101EB001061688900B0FBF1F7FCF716
:10560000CDFB00EBC00101EB001061688900CCE725
:10561000001401400010014090F83910122903D005
:10562000322901D0022070478168B1F5805F016A9C
:105630000BD04A1C0262026809785160C18C491E75
:105640000904090CC1840ED017E009880268C1F36F
:105650000801516001690029016A02D0491C0162F8
:10566000ECE7891CFBE70168CA6822F08002CA6087
:105670000068C16841F04001C160002070472DE919
:10568000F0471D4690460F460446FCF751F9064682
:105690005FEA08004FF000094FF0010808D030E041
:1056A000681C05D095B1FCF743F9801BA8420DD8C2
:1056B0002068006837EA0000F2D127E0681C20D09B
:1056C00025B1FCF735F9801BA8421AD92068C168BA
:1056D00021F08001C1602068C16821F02001C16013
:1056E0002068C16821F48071C1602068416921F09F
:1056F0000101416184F8398084F838900320BDE8C5
:10570000F0872068006837EA0000D7D00020F6E76D
:1057100038B5184800680068C043800622D44FF4AA
:105720007A73012269461348FDF794FC124A1088E7
:10573000010417D441049DF800104FF0000304D574
:105740000A290ED140F4004012E00D290ED0C0F31A
:105750000D04084D401CC83D80B229551080C72853
:1057600000D913800348FDF781FB38BD40F4804029
:105770001080F7E7580800201C00002010B5D0F872
:10578000E42552689047002010BD10B51346002450
:105790000A462146FBF7A5F8204610BD10B5134672
:1057A00000240A462146FBF7E2F8204610BD10B55A
:1057B00004468021FBF7BFF800212046FBF7BBF829
:1057C0002046BDE8104000F083BF70B505460024B8
:1057D000052085F811012346224621462846FBF77D
:1057E00080F8284600F074FF204670BD10B5C0F860
:1057F0003C210223C0F8382180F8113113460024DF
:105800000A462146FBF7B3F8204610BD70B50546A1
:105810000024042085F8110123462246214628460B
:10582000FBF7A5F8284600F053FF204670BD0000A6
:1058300070B5054641B1D5F8E4054269BAB395F8AB
:10584000120103284CD04DE095F81101002605F512
:105850008E74022839D1E169A06881420FD9081AF3
:10586000E061E878012803D1D4E902100844E0603F
:10587000A08BE16882B22846FFF790FF10E0216A12
:10588000B1FBF0F200FB121292B9814210D3606AB0
:1058900081420DD2002211462846FFF77FFF666243
:1058A00000231A4619462846FBF71BF80DE016E0C0
:1058B000D5F8E405C16829B195F81201032801D192
:1058C000284688472846FFF780FF95F816010128EB
:1058D00008D1054800682969486085F8166101E02B
:1058E00028469047002070BD8000002070B5054616
:1058F00041B1D5F8E4058269FAB195F8120103289F
:105900002AD02BE095F8110105F55D74032825D107
:10591000A168E069884211D9401AE061E87801285D
:1059200002D1E0680844E060E069884200D308469C
:1059300082B22846E168FFF728FF0FE0D5F8E405BA
:10594000016929B195F81201032801D12846884739
:105950002846FFF75BFF01E028469047002070BD16
:1059600038B50446C888ADF8000048880D46010ADD
:1059700004294CD2DFE801F04B020713D4F8EC15F0
:10598000A0780A6830E0D4F8E415A0788A6A6946FD
:105990009047014602204870C4F8F01527E0C0B2D5
:1059A000062834D2DFE800F003080D12171CD4F8E3
:1059B000EC15A0784A6817E0D4F8EC15A0788A684E
:1059C00012E0D4F8EC15A078CA680DE0D4F8EC1514
:1059D000A0780A6908E0D4F8EC15A0784A6903E0D9
:1059E000D4F8EC15A0788A69694690470146BDF85D
:1059F000000000280AD0EA88002A07D0824200D995
:105A00000246ADF800202046FFF7F0FE38BD2946DB
:105A10002046FFF7CCFE38BD01EB810100EBC10051
:105A2000B0F88C0380B2704770B5002300281DD0F9
:105A30000446002502E06D1CEDB2641C2678002EA1
:105A4000F9D1022404EB45041480CC545B1C0322DE
:105A5000CA5400245B1C06E0CA545B1CDAB28C54A6
:105A6000521CD3B2401C0278002AF5D170BD2DE93A
:105A7000F0411D46174688460446069E00F070FC1D
:105A800004F2E452414682E8E0002046FBF726F9A2
:105A9000D4F8E805006880472046BDE8F04100F0F2
:105AA00053BC10B5D0F8E415096A8847002010BD32
:105AB00010B5D0F8E415496A8847002010BD10B52C
:105AC000FDF7F0FC002010BD10B5FDF70BFD002028
:105AD00010BD10B504468121FAF7A7FE012120462A
