:020000040800F2
:10000000B0C6002015020008A11F00080919000849
:100010009D1F00080D070008A15200080000000005
:10002000000000000000000000000000C9430008BC
:10003000A914000800000000D9210008054D00089F
:100040002F0200082F0200082F0200082F020008CC
:100050002F0200082F0200082F0200082F020008BC
:100060002F0200082F0200082F0200082F020008AC
:100070002F0200082F0200082F0200082F0200089C
:100080002F0200082F0200082F0200082F0200088C
:10009000A15100082F0200082F0200082F020008BB
:1000A0002F0200082F0200082F0200082F0200086C
:1000B0002F0200082F0200082F0200082F0200085C
:1000C0002F0200082F0200082F0200082F0200084C
:1000D0002F020008A14D00082F0200082F0200087F
:1000E0002F0200082F020008C34F00082F0200084B
:1000F0002F0200082F0200082F0200082F0200081C
:100100002F020008852B00082F0200082F0200088C
:100110002F0200082F0200082F0200082F020008FB
:100120002F0200082F0200082F0200082F020008EB
:1001300000F002F800F05FF80AA090E8000C82449A
:100140008344AAF10107DA4501D100F054F8AFF277
:10015000090EBAE80F0013F0010F18BFFB1A43F0A5
:1001600001031847C0590000E05900000A444FF04D
:10017000000C10F8013B13F0070408BF10F8014B06
:100180001D1108BF10F8015B641E05D010F8016B4B
:10019000641E01F8016BF9D113F0080F1EBF10F8AF
:1001A000014BAD1C0C1B09D16D1E58BF01F801CBD2
:1001B000FAD505E014F8016B01F8016B6D1EF9D555
:1001C0009142D6D37047000000230024002500266A
:1001D000103A28BF78C1FBD8520728BF30C148BFAA
:1001E0000B607047782900F01181002070471FB51F
:1001F0001FBD10B510BD00F037FA1146FFF7F7FF2D
:1002000005F0C0FA00F055FA03B4FFF7F2FF03BCA3
:1002100005F056FA0948804709480047FEE7FEE71F
:10022000FEE7FEE7FEE7FEE7FEE7FEE7FEE7FEE7A6
:1002300004480549054A064B70470000094D00086F
:1002400031010008B0C00020B0C60020B0C20020BC
:10025000B0C20020704753EA020C00F069802DE91B
:10026000F04B4FF00006002B1FBFB3FA83F503FAE3
:1002700005F424FA05F65E4012BF1643B2FA82F581
:1002800002FA05F4C5F120051EBF22FA05FC44EA76
:100290000C04203556EA044C4FEA144418BF641C81
:1002A0004FF000084FF00009904271EB030C39D376
:1002B000002919BFB1FA81F701FA07F6B0FA80F701
:1002C00000FA07F6C7F120071EBF20FA07FC46EA2E
:1002D0000C062037B6FBF4FCA7EB0507103F07F030
:1002E0001F0BCBF120060CFA0BFB2CFA06F644BFD1
:1002F000B3460026202FA4BF5E464FF0000B5BEAFA
:10030000060C08BF4FF0010B19EB0B09ABFB027C8D
:1003100048EB0608C01B06FB02CC0BFB03CC71EBC1
:100320000C01C1E70B46024641464846BDE8F08B4A
:1003300013B54FF000004FF00001AFF30080BDE8AF
:100340001C40704710B54C1084EA530404D5404259
:10035000C1F1000138BF491E1B4204D55242C3F10E
:10036000000338BF5B1EFFF776FF14F0804F04D008
:100370004042C1F1000138BF491E14F0004F04D0C3
:100380005242C3F1000338BF5B1E10BD0FB40449D5
:1003900010B503AA029800F007F910BC5DF814FB31
:1003A000280000202DE9F0410E460446002020627E
:1003B0002046E168884730B3252805D0D4E90121DB
:1003C0009047206A401CF2E7E168204600278847F2
:1003D000050018D0A5F14100192802D820354FF4A6
:1003E00000673246294620462760FFF7FBFE40B1F2
:1003F000012804D0F61D26F007060836D8E7361D7A
:10040000D6E72846DAE7206ABDE8F08170B50446F1
:100410000D4621461068AFF300802188090502D5FA
:100420000F4A7A4402E00E4A7A440E32002104F167
:10043000240305E000F00F060009965D5E54491C98
:100440000028F7D120780023000704D5702D02D0B2
:1004500009B1022311322046BDE8704000F04BB8CC
:10046000D4560000032A40F2308010F0030C00F054
:10047000158011F8013BBCF1020F624498BF11F8DE
:1004800001CB00F8013B38BF11F8013BA2F1040297
:1004900098BF00F801CB38BF00F8013B11F003030F
:1004A00000F09480083AC0F0088051F8043B083A04
:1004B00051F804CBA0E80810F5E7121D5CBF51F815
:1004C000043B40F8043BAFF30080D20724BF11F88F
:1004D000013B11F801CB48BF11F8012B24BF00F8F4
:1004E000013B00F801CB48BF00F8012B7047704773
:1004F0007047704770472DE9F0470D469946924680
:10050000044600F124080168880604D5E06921F05A
:100510001001216000E00120A84201DD471B00E03E
:100520000027A1697A1902EB0900081AA061207856
:10053000C00602D42046AFF30080002608E0D4E9CC
:1005400001211AF806009047206A401C761C2062A0
:100550004E45F4DB2078C0060AD52046AFF3008074
:1005600006E0D4E9012130209047206A401C206237
:10057000381EA7F10107F4DC07E0D4E9012118F8DF
:1005800005009047206A401C2062281EA5F1010545
:10059000F3DC2046AFF300802078000602D502206D
:1005A000BDE8F0870120FBE7074B70B50D467B44A3
:1005B00000F043F80446284600F052F810B14FF01E
:1005C000FF3070BD204670BDB751000010B5203A15
:1005D000C0F00B80B1E81850203AA0E81850B1E8FC
:1005E0001850A0E81850BFF4F5AF5FEA027C24BFB2
:1005F000B1E81850A0E8185044BF18C918C0BDE8A9
:1006000010405FEA827C24BF51F8043B40F8043B71
:1006100008BF7047D20728BF31F8023B48BF11F826
:10062000012B28BF20F8023B48BF00F8012B704780
:1006300001694A1C02610878704700B58FB0CDE9A6
:1006400001310021059105497944CDE90310114696
:100650006846FFF7A7FE0FB000BD0000E5FFFFFFF3
:10066000007B00F080007047754600F02BF8AE4626
:1006700005006946534620F00700854618B020B5AE
:10068000FFF7D6FDBDE820404FF000064FF0000711
:100690004FF000084FF0000B21F00701AC46ACE82A
:1006A000C009ACE8C009ACE8C009ACE8C0098D4697
:1006B000704710B50446AFF300802046BDE81040F7
:1006C000FFF7A2BD004870474CC0002010B504469B
:1006D00024B1012C07D0022C15D10AE010210120F1
:1006E00003F034FF10E04FF48051022003F0D6FEF7
:1006F0000AE01021012003F029FF4FF4805102206D
:1007000003F0CCFE00E000BF00BF10BD00BFFEE75D
:100710000146CAB20B1243EA0220704710B500240A
:1007200005E0A8480068005DA7490855641CA74873
:1007300000888442F5D3A4484068A5494860A2488F
:1007400080688860A14800881F280FD00220FFF72A
:10075000BDFF00209C490860487B1A22052103F058
:10076000B9FF0021012003F097FF10BD9648C07B20
:10077000282803D09448C07B2A2816D19248407C70
:1007800001069148807C41EA00418F48C07C41EAE3
:1007900000208D49097D08438E4908608A48C17D43
:1007A000807D41EA00208C490860874800688B49B9
:1007B00088426FD18448407B89490968884207D8BC
:1007C0008148807B012803DB7F48807B10280DDD7A
:1007D0000220FFF77BFF7C49487B2422052103F0A0
:1007E00079FF0021012003F057FFE8E07648C07B45
:1007F00025285FD01BDC15286FD00EDC08286DD0B3
:1008000006DC00285BD0032830D0042867D176E0CE
:100810000A286ED01228F9D12DE01A380A285ED2A3
:10082000DFE800F0392EB17D33B1B1B1B1438A2890
:100830006FD00EDC552867D006DC282844D02A2843
:100840004ED02F28E2D155E05A2829D08828DDD172
:1008500076E0A8286DD004DC8F286FD09E28D5D1F3
:1008600073E0AA287BD0AF28D0D182E05649487BDC
:1008700002F044F895E05449487B01F017FF90E0FE
:100880005149487B02F04EF88BE04F49487B02F01B
:1008900049F886E086E04C49487B01F057FF80E04C
:1008A0004949487B01F048FF7BE04749487B01F01C
:1008B000E1FF76E04449487B01F08EFF71E0424958
:1008C000487B02F037F86CE03F49487B42490A68B0
:1008D0004049096801F044FF63E01BE024E052E076
:1008E0003949487B3C490A683A49096802F05EF890
:1008F00057E02FE03449487B02F038F851E03249A4
:10090000487B01F0BBFE4CE02F49487B01F0F2FE32
:1009100047E029E02C49487B01F0ECFE41E02A4900
:10092000487B01F0E7FE3CE02749487B01F0E2FE0E
:1009300037E02549487B01F0DDFE32E01EE00EE0A5
:100940002149487B01F0D6FE2BE01F49487B01F08E
:10095000D1FE26E01C49487B01F0CCFE21E01A497B
:10096000487B01F0C7FE1CE01749487B01F0C2FE3E
:1009700017E01549487B01F0BDFE12E01249487BA3
:1009800001F0B8FE0DE00220FFF7A0FE0E49487B03
:100990002022052103F09EFE0021012003F07CFEB1
:1009A00000BF0CE00220FFF791FE0749487B2022A0
:1009B000052103F08FFE0021012003F06DFE00BF32
:1009C000D3E600004C010020FCBF002050010020B5
:1009D0001CC0002054010020580100205553424300
:1009E000B401002008B50020009022E1974800885B
:1009F00000F00F00964908700846007800287CD166
:100A000094480068944908800846008800F0300047
:100A1000924908809048008800F440508E49088030
:100A20008C4909684BF6BF7201EA020080F400505D
:100A300080F0200040F4004141F08001854A1160BF
:100A40008248008800F0100090BB1046006848F60D
:100A50000F7108401146086000F05CFF7D4909688D
:100A60004BF6BF7201EA02007B49098801F480510C
:100A700009B180F480507849098801F4005109B126
:100A800080F400507549098801F0100109B180F027
:100A900010007249098801F0200109B180F020009E
:100AA00081B241F4004141F080016A4A116008BD01
:100AB000FFE76848006880B20090BDF8000000F4CD
:100AC0000060B0B363480068C0F30E0048F68F7151
:100AD00008406049086003F00DFE5E4909684BF666
:100AE000BF7201EA02005C49098801F4805109B132
:100AF00080F480505849098800E056E001F4005124
:100B000009B180F400505549098801F0100109B17C
:100B100080F010005149098801F0200109B180F0EE
:100B2000200081B241F4004141F08001494A116046
:100B3000BDE7FFE7BDF8000000F40040002878D0D2
:100B400044480068C0F30E0048F68F7108404149E0
:100B5000086001F005FB3F4909684BF6BF7201EAE6
:100B600002003D49098801F4805109B180F48050A8
:100B70003949098801F4005109B180F4005037491E
:100B8000098801F0100109B180F01000334909888B
:100B900001F0200109B180F0200081B241F4004150
:100BA00041F080012B4A116081E7294800782C49E7
:100BB00001EB8000D0F8000C80B20090BDF800007E
:100BC00000F40040C0B12248007801EB8000D0F86A
:100BD000000CC0F30E0048F68F7108401C490978DC
:100BE0001F4A02EB8101C1F8000C19490978491E1E
:100BF0001C4A52F821008047BDF8000000F0800038
:100C0000B8B113480078164901EB8000D0F8000C09
:100C100048F60F7108400E490978114A02EB81012C
:100C2000C1F8000C0A490978491E0F4A52F8210000
:100C3000804708484430006880B20449088000F4C6
:100C4000004000287FF4D2AE00BF30E778010020DA
:100C500064000020005C0040780000207A00002042
:100C600000500040980100207C0100200B4A02EB5C
:100C70008001D1F8001C01F4804171B102EB8001C8
:100C8000D1F8001C48F68F7211404CF280021143DB
:100C9000024B03EB8002C2F8001C7047005000407A
:100CA0000B4A02EB8001D1F8001C01F0400171B148
:100CB00002EB8001D1F8001C48F68F72114048F217
:100CC000C0021143024B03EB8002C2F8001C7047C4
:100CD00000500040084A02EB8001D1F8001C48F6A1
:100CE0008F62114048F280021143034B03EB8002F4
:100CF000C2F8001C704700000050004070B500258D
:100D00004FF4803404E0802001F028FF00B103E0BC
:100D1000201EA4F10104F6D100BF0CB9032070BD60
:100D200040F2FF5001F0D4FE2846F8E770B50446C3
:100D300005E01548456B05F0450000B100E0F8E717
:100D400000BF042001F00AFF20B1042001F0C0FE22
:100D5000032070BD012001F001FF20B1012001F04E
:100D6000B7FE0120F5E708480069A04201D0102035
:100D7000EFE740F2FF5004498863084640690821C4
:100D80000840C0B2E5E700000080014070B50026D1
:100D90004FF4803505E01148446B04F0450000B184
:100DA00003E0281EA5F10105F5D100BF15B104F03F
:100DB000040028B10326042001F08AFE304670BDED
:100DC000012001F0CBFE18B10126012001F080FEC8
:100DD00040F2FF5001F07CFE3046F0E70080014019
:100DE00010B505E00B48446B04F0450000B100E08D
:100DF000F8E700BF042001F0B1FE20B1042001F0AB
:100E000067FE032010BD40F2FF5001F061FE00209C
:100E1000F8E70000008001402DE9F04105460E464C
:100E20004FF0000805E01F48476B07F0450000B190
:100E300000E0F8E700BF042001F090FE28B1042094
:100E400001F046FE0320BDE8F081012001F086FE9E
:100E500020B1012001F03CFE0120F4E711480069B7
:100E6000A84201D01020EEE740F2FF5001F030FE22
:100E70000C48446904F4604018B9200C30804046A6
:100E8000E1E704F4005008B11320DCE704F48040EB
:100E900008B11020D7E704F4004008B10F20D2E7D2
:100EA0004046D0E70080014070B500264FF4803501
:100EB00005E00F48446B04F0450000B103E0281E34
:100EC000A5F10105F5D100BF15B104F0040028B16A
:100ED0000326042001F0FCFD304670BD04F0400004
:100EE00018B10026402001F0F3FD3046F5E7000080
:100EF0000080014021B1026842F00102026004E07A
:100F000002684FF6FE731A400260704701684FF6A0
:100F1000FE72114001600021016041608160C1608A
:100F20004B49884208D14A490839496841F00F01C4
:100F3000474A083A51608AE045491431884208D14D
:100F400043490839496841F0F001414A083A516083
:100F50007DE03F492831884208D13D490839496838
:100F600041F470613A4A083A516070E038493C31C6
:100F7000884208D136490839496841F47041344AF9
:100F8000083A516063E032495031884208D1304913
:100F90000839496841F470212D4A083A516056E0F9
:100FA0002B496431884208D129490839496841F4FC
:100FB0007001274A083A516049E025497831884252
:100FC00008D123490839496841F07061204A083A3C
:100FD00051603CE01F49884206D1011F096841F079
:100FE0000F01021F116032E01A491431884208D102
:100FF0001849091F096841F0F001164A121F1160D3
:1010000025E014492831884208D11249091F09688E
:1010100041F470610F4A121F116018E00D493C3114
:10102000884208D10B49091F096841F47041094AF7
:10103000121F11600BE007495031884207D1054962
:10104000091F096841F47021024A121F116070479C
:10105000080002400804024010B50022026847F66A
:10106000F0739A430C6A8B6823430C6923434C69E1
:1010700023438C692343CC6923434C6A23438C6A02
:1010800023431A430260CB6843600B6883604B685C
:10109000C36010BD2DE9F0472848006800F1100535
:1010A0002E8826480068077AD6B9042F18D124481C
:1010B000007801280FD100212248006880B2801CEE
:1010C000214A42F8101030202049088000BF00203B
:1010D0001B49087003E0072710201C49088027E0FF
:1010E000AC88A64201D8042000E002200746B442A2
:1010F00000D93446A0B2A96888478046002000F095
:10110000CBFB8146A2B24946404604F0CBF8A1B2DF
:10111000002003F00DFA2888001B288068882044EE
:10112000688030200949088000020949088000BF12
:10113000024909680F72BDE8F087000068000020CE
:1011400062000020505C0040006000407A000020F7
:10115000780000202DE9F0412848006800F11004D3
:101160002688A068C0B1BEB1A588B54200D9354671
:10117000A8B2A168884707462088401B2080608865
:1011800028446080002000F059FB8046AAB2414606
:10119000384601F00DF800BF208850B14FF44050A0
:1011A000174908800021084603F0C2F9302015498C
:1011B00008802088A188884204DB03200F49096841
:1011C000087218E02088002804DD05200B49096812
:1011D000087210E0208870B9062008490968087272
:1011E00000210948006880B2801C084A42F81010AB
:1011F000302004490880BDE8F0810000680000202C
:10120000780000207A000020505C00400060004020
:101210002DE9F84F9B48006845780027BA46062D0F
:101220001BD198480068007800F07F00002813D197
:10123000944909688878012803D193490968CF69DE
:101240000AE0022803D1904909680F6A04E00328E4
:1012500002D18D4909684F6A94E0002D64D1894814
:101260000068408800285FD186480068C08802284E
:101270005AD1844800680079002855D18148006817
:10128000007800F07F0028B97E480068808808B99F
:101290007E4F77E07B480068007800F07F000128EF
:1012A00010D1784909684879774909688A69002125
:1012B0009047002866D173480068807A002861D082
:1012C000724F5FE06F480068007800F07F000228EE
:1012D00058D16C480068407900F00F0669480068F2
:1012E000407900F0700967480068407900F080009C
:1012F00038B1674901EB8600D0F8000C00F03008E7
:1013000006E0634901EB8600D0F8000C00F4405879
:1013100060480078B04235D9B9F1000F32D1B8F148
:10132000000F2FD0594F2DE0082D07D155480068E8
:10133000007800F07F0028BB574F23E00A2D21D111
:1013400050480068007800F07F0001281AD14D480D
:101350000068807AB0B14B480068408890B949482D
:101360000068007970B947480068C088012809D131
:10137000444909684879444909688A6900219047C5
:1013800000B9464F57B13F480068A0F812A03D4849
:10139000006887610020B84700240FE0394A1268CE
:1013A0005078394A1268116988470446032C05D1E0
:1013B0000920344909680872BDE8F88F314800688F
:1013C000008A4FF6FF71884204D109202D4909682F
:1013D0000872F1E7022C03D02A480068008A20B97D
:1013E0000820284909680872E6E72648006800785E
:1013F00000F08000E0B323480068C08800902148D6
:101400000068008A0099884204D91E49009809683A
:10141000088223E01B480068008A1A490968C988C5
:1014200088421BDA17480068008A1749096891F852
:101430002C10884203DA0020194908700EE0114888
:101440000068008A1049096891F82C1090FBF1F2AD
:1014500001FB120010B90120114908700A48006808
:1014600090F82C10074800688182FFF713FE07E010
:10147000FFE703200349096808720003094908804F
:1014800000BF99E7680000206C0000209549000823
:1014900000500040B50100201949000869490008C2
:1014A0006200002078000020704710B500F0AEFC0C
:1014B00010BD10B500F0FEFC10BD00000149086031
:1014C0007047000014040140002123498279002A5A
:1014D0003AD00A46126803689A430B461A600A1DFE
:1014E000126803689A430B1D1A60027911440A6856
:1014F00003681A430A60184A0832126803689A435C
:10150000154B08331A601A1D126803689A43124B70
:101510000C331A604279102A0ED11A1F1268036820
:101520001A430D4B08331A601A1D126803681A43D8
:10153000094B0C331A600DE00749427911440A68DF
:1015400003681A430A6005E0027911440A680368D7
:101550009A430A60704700000004014010B503A0E0
:10156000FEF714FF03200849086010BD7573622060
:10157000656E746572206C6F7720706F776572206E
:101580006D6F64650D0A0000440200202DE9FC41E6
:1015900007460D46002600240020009001900820F8
:1015A0005B49086010204860402088600020C860C7
:1015B0004FF480600861084601F006FB1020FFF739
:1015C000B5FB044614B12046BDE8FC8151480088B3
:1015D00000044F49086037204860402088600020A0
:1015E000C8604FF480600861084601F0EDFA3720CA
:1015F000FFF79CFB04460CB12046E5E74FF0FF30B7
:101600004549086008204860302088600220C86092
:101610000020086101204861084601F075FA0020A9
:101620003B49086033204860402088600020C86043
:101630004FF480600861084601F0C6FA3320FFF7D6
:1016400075FB04460CB12046BEE70CE04FF40010D9
:1016500001F084FA38B101F0B1FA4DF82600761C99
:10166000022E00D306E02D48406B40F22A6108406C
:101670000028EBD000BF082001F070FA20B108204C
:1016800001F026FA04209FE7022001F067FA20B15A
:10169000022001F01DFA022096E7202001F05EFAF8
:1016A00020B1202001F014FA06208DE74FF40070DD
:1016B00001F054FA28B14FF4007001F009FA072044
:1016C00082E740F2FF5001F003FA0098000600990B
:1016D00001F47F4140EA0120009901F47F0140EAD2
:1016E0001120009940EA1160686001980006019994
:1016F00001F47F4140EA0120019901F47F0140EAB1
:101700001120019940EA1160286020465CE7000042
:1017100068120020180000207C1200200080014088
:101720002DE9F04102460025002600200023002478
:10173000002791F803C00CF00F0591F803C00CF0DE
:10174000100CBCF1000F03D091F802C04CEA050563
:1017500091F800C0BCF1000F31D0146800202BE0DC
:101760004FF0010C0CFA00F3B1F800C00CEA0306CC
:101770009E4220D183004FF00F0C0CFA03F7BC43BC
:1017800005FA03FC4CEA040491F803C0BCF1280FED
:1017900006D14FF0010C0CFA00FCC2F814C00AE0AC
:1017A00091F803C0BCF1480F05D14FF0010C0CFAC1
:1017B00000FCC2F810C0401C0828D1D31460B1F856
:1017C00000C0BCF1FF0F34DD546800202EE000F1B2
:1017D000080C4FF0010808FA0CF3B1F800C00CEA4D
:1017E00003069E4221D183004FF00F0C0CFA03F741
:1017F000BC4305FA03FC4CEA040491F803C0BCF1B5
:10180000280F05D100F1080C08FA0CF8C2F8148072
:1018100091F803C0BCF1480F07D100F1080C4FF05C
:10182000010808FA0CF8C2F81080401C0828CED332
:101830005460BDE8F0810161704700000146054831
:10184000006880B200EBC100001D034A32F81000AE
:1018500080B27047505C004000600040014606487E
:10186000006880B200EBC100801D044A32F810000D
:10187000C0F3090070470000505C00400060004069
:101880000146044A02EB8100D0F8000C00F44050FD
:10189000704700000050004001460548006880B2D3
:1018A00000EBC100034A32F8100080B2704700001C
:1018B000505C004000600040014629B90120034A05
:1018C00012681082002070470148FCE76800002081
:1018D000B401002070B50A480468001D0568001DA9
:1018E0000668344454B108220649204600F04AF8FC
:1018F000042204491031284600F044F870BD00006D
:10190000E8F7FF1F5E01002000BFFEE772B67047D8
:1019100062B6704710B518480068047A022C01D0EE
:10192000042C05D1FFF7B6FB13480068047A1CE0CD
:10193000062C19D110480068407805280ED10E48B1
:101940000068007800F07F0040B90B490968C8784A
:1019500002F044FD09490968086A80470849096896
:1019600088688047082400E00824034909680C724D
:1019700000F034FC10BD000068000020740000205E
:101980006C00002030B50B46002100BF16E00A2491
:10199000B4EB107F05D9302404EB107403F8114028
:1019A00005E0412404EB10740A3C03F811400001E7
:1019B00000254C00641C1D554C1CE1B29142E6DB35
:1019C00030BD00001CB50446002001900090214865
:1019D00000880004204908600D204860402088608D
:1019E0000020C8604FF480600861084601F0ECF800
:1019F0001A48406B009002E01848406B0090009835
:101A000000F045000028F7D0012001F0A7F820B130
:101A1000012001F05DF801201CBD042001F09EF8BA
:101A200020B1042001F054F80320F5E70B480069C9
:101A30000D2801D01020EFE740F2FF5001F048F8E8
:101A40000648406901900198C0F3432020700020AF
:101A5000E2E700001800002068120020008001402A
:101A600008B50121482000F01DFC2020ADF8000041
:101A700010208DF8030003208DF802006946094804
:101A8000FFF74EFE20210748FFF7D5FE2020ADF8D6
:101A9000000069460448FFF743FE20210248FFF793
:101AA000CAFE08BD000C01400018014010B5074CEB
:101AB00007A0FEF76BFCA07A18B105200A49086060
:101AC00002E001200849086010BD0000E0BF0020CE
:101AD0006C65617665206C6F7720706F776572201A
:101AE0006D6F64650D0A0000440200200120014969
:101AF0000860704794012342002001490860704744
:101B000094012342014611B1012904D101E00020D2
:101B100070470020FCE70120FAE72DE9F04707466F
:101B200014461D46DDE9089817B1012F11D109E0CF
:101B30004FEA6822600A40EAC551484601F042FE79
:101B4000064609E0002642462146484603F0F2FBDD
:101B500002E00120BDE8F08700BF0EB10120F9E7E7
:101B60000020F7E72DE9F047074614461D46DDE95A
:101B7000089817B1012F11D109E04FEA6822600AD5
:101B800040EAC551484602F0BBF9064609E0002686
:101B900042462146484603F015FC02E00120BDE81C
:101BA000F08700BF0EB10120F9E70020F7E7000041
:101BB00070B50546002414480068007800F07F00E6
:101BC000212810D1FE2D0ED10F480068408850B951
:101BD0000D480068808830B90B480068C08801282B
:101BE00001D10A4C01E0022070BD0CB90220FBE7D4
:101BF0000548006884610021034800684182002094
:101C0000A0470020F0E7000068000020B918000895
:101C100010B504460249204602F094FE10BD0000B3
:101C20001402002010B504460249204602F08AFE44
:101C300010BD00000C02002070B505460648006883
:101C4000C478052C01DD002070BD044800EBC40100
:101C5000284602F077FEF7E7680000201C0200200B
:101C60000246002901DD02207047002A01DD022022
:101C7000FAE70020F8E7000010B5044611480068B4
:101C8000007800F07F0021281AD1FF2C18D10D48D0
:101C900000684088A0B90B480068808880B909486E
:101CA0000068C08860B90120FEF7FAFF0220FEF745
:101CB000DDFF05480549086000200549087010BD92
:101CC0000220FCE76800002055534243FCBF00207F
:101CD0004801002010B50020324988723248C0798E
:101CE000324909684872002002F070FB4FF400711D
:101CF000002002F04BFC2021002002F027FC1821DC
:101D0000002002F093FB2A4890F82C10002002F0EB
:101D10009FFB5821002002F0FBFB0020FEF7DAFFBA
:101D2000002002F0DBFB0021012002F02FFC9821B3
:101D3000012002F0EDFB2021012002F007FC002130
:101D4000012002F0ABFB0021022002F01FFCD82191
:101D5000022002F06BFB164890F82C10022002F0D3
:101D600077FB4FF44051022002F098FB0021022043
:101D700002F0ECFB0E4890F82C10002002F068FBFB
:101D8000002002F0ABFB002002F028FB01200949F3
:101D9000086009480949086000200949087003F0F3
:101DA00003FA10BDE0BF00207A5A00086800002046
:101DB000B80100204402002055534243FCBF0020DC
:101DC000480100207047704710B5FFF783FD0020E1
:101DD00005490968887200F025FA03F021FA00200D
:101DE0000249086010BD0000680000204402002085
:101DF00010B5044800680449884202D00220FEF76A
:101E000065FC10BDFCBF00205553424310B524486B
:101E1000007840F01000224908702248007802281B
:101E20001BD003282ED0042802D0052834D100E08E
:101E300000BF00201B4908704FF44051022002F0FF
:101E40002DFB0220FFF71CFDB0F5805F04D14FF49D
:101E50004051022002F022FB1FE01348C07B2828DB
:101E60000ED10F48007840F002000D4908700E496D
:101E7000487B0E490A680E49096800F071FC00BFF2
:101E800000BF0AE00121002002F006FC4FF440519F
:101E9000022002F003FB00E000BF00BF10BD000005
:101EA000A500002048010020FCBF002058010020B0
:101EB0005401002010B52348007840F0100021495B
:101EC00008702148C47B21480168022003F0BAF958
:101ED0001F4908801F48007810B1012822D102E074
:101EE000FEF71CFC2CE02A2C0ED11648007840F09E
:101EF0000100144908701449487B17490A681749BA
:101F0000096800F053FD1BE00120FEF7DFFB0E49DE
:101F1000487B2422052102F0DDFB0021022002F093
:101F2000BBFB0DE00220FEF7D1FB0749487B2422D2
:101F3000052102F0CFFB0021022002F0ADFB00BF23
:101F400000BF10BDA5000020FCBF00204C010020F8
:101F500050010020480100205801002054010020B9
:101F600010B508480068807A58B105200649086015
:101F70000120FEF795FE0220FEF778FE00200349BF
:101F8000087010BD680000204402002048010020B5
:101F900004200149086070474402002000BFFEE7AA
:101FA0007047704770B5002100230F22C47804B336
:101FB000154C246804F4E064C4F5E064210AC1F11E
:101FC0000403CA40447804FA03F18478144021439E
:101FD00009010E4C0678A155047804F01F05012470
:101FE000AC4005786D11AD0005F1E025C5F8004164
:101FF00009E0047804F01F050124AC40044D067884
:10200000761145F8264070BD0CED00E000E400E0DC
:1020100080E100E002490143024A1160704700007C
:102020000000FA050CED00E070B502264748006894
:10203000447846480068007800F07F00002844D1CA
:10204000092C03D102F026FD06465FE0052C14D1D1
:102050003E480068C0787F280BDC3C4800688078E8
:1020600038B93A480068808818B938480068807ADA
:1020700008B1082565E0002648E0032C0ED133485E
:102080000068C078012807D130480068808818B9F6
:1020900002F024FD064639E0022637E0012C35D156
:1020A0002A480068C07801280DD128480068808837
:1020B00048B926480068407A00F0200018B102F0C4
:1020C00075FB064622E0022620E0204800680078E2
:1020D00000F07F00012805D10B2C17D102F07AFD0A
:1020E000064613E019480068007800F07F000228D7
:1020F0000BD1012C03D102F059FB064606E0032C5C
:1021000004D102F0FFFC064600E002264EB1E0B228
:102110000F4A1268516988470646032E01D10925E6
:102120000FE00EB108250CE00625002109480068E3
:1021300080B2801C084A42F81010302007490880FD
:1021400000BF024909680D7270BD000068000020E0
:102150006C000020505C0040006000407A000020CD
:1021600010B511480068047A022C01D0042C01D16A
:10217000082412E0032C01D0052C05D1FEF7EAFF5C
:1021800009480068047A08E0072C05D10749096866
:10219000C8688047082400E00824034909680C72D5
:1021A00000F01CF810BD0000680000206C0000204A
:1021B000F0B5561C7510074E06EB41042B4605E0A2
:1021C00034F8047B20F8017B401C5B1E002BF7D108
:1021D000F0BD0000006000407047000010B50D48E1
:1021E00090F82C10002002F033F90B480068007AB8
:1021F000082805D1400209490880102008490880B4
:1022000005480068007A092801D1012010BD00208E
:10221000FCE70000B80100206800002078000020E2
:102220007A00002010B5012002F0D2FE01240B48F4
:10223000046000200A4908800846008807490860B1
:102240000020091D08604FF4E05005490880084649
:10225000008802490860002010BD0000405C00407A
:102260007200002029B1064A52690243044B5A61A8
:1022700004E0034A52698243014B5A6170470000EF
:102280000010024029B1064AD2690243044BDA61C8
:1022900004E0034AD2698243014BDA6170470000CF
:1022A0000010024029B1064A92690243044B9A6128
:1022B00004E0034A92698243014B9A61704700002F
:1022C0000010024030B500210022002400232D4DD3
:1022D0006D6805F00C0121B1042905D0082923D12E
:1022E00005E0294D056022E0274D05601FE0254DE2
:1022F0006D6805F47012234D6D6805F48034022575
:1023000005EB92421CB9214D554305600BE01D4D74
:102310006D6805F400351DB11C4D5543056002E0A4
:10232000194D5543056002E0174D056000BF00BF21
:10233000144D6D6805F0F0010909154D6B5C0568D9
:10234000DD4045600F4D6D6805F4E061090A104DF0
:102350006B5C4568DD4085600A4D6D6805F4605131
:10236000C90A0B4D6B5C4568DD40C560054D6D6865
:1023700005F44041890B074D6B5CC568B5FBF3F56F
:10238000056130BD0010024000127A0000093D00D6
:102390002E0000203E000020014908607047000028
:1023A000D80042422DE9FC4104460D4616464948F4
:1023B000007890B9484850F82400A5FB0010474A1F
:1023C000C2E90010444850F82400A6FB0010444A1B
:1023D000C2E9001001203F4908703E4800780128FA
:1023E0005CD14048006820BB3B4830F8240080B2F4
:1023F0003D490968CDE9001038480CC82046FFF770
:102400008CFBC7B22FB13948007840F0080037493B
:102410000870402234480168812002F02AFF2E48CB
:1024200050F8240040382F490860402030490860A7
:1024300012E02D4800682E4A12688118402281203F
:1024400002F017FF274800684038264908602848EE
:1024500000684030264908604021012002F068F8F9
:102460003021012002F072F81C48D0E900304022EF
:102470009A1840F100001949C1E900201848D0E934
:102480000010403960F10000154AC2E900101948F7
:102490008068403817498860FFF72EFB1048D0E964
:1024A0000010002359405840014310D100200D492D
:1024B00008600F4908600021084A1160516003203C
:1024C0000D490870002003490870FFF70FFBBDE8B5
:1024D000FC810000A400002088000020A80000204B
:1024E000B000002090000020A0000020A5000020E7
:1024F000940000201CC000204801002070B5054653
:10250000072D01D02E4805702D48007808284ED29E
:10251000DFE800F004111A202B384E4F29480068DC
:1025200028B900F053F806202549087002E005207C
:102530002349087041E000F049F804202049087060
:1025400001202049086038E002201D49487003201E
:10255000087032E01A484078401E19494870084611
:10256000407808B90420087027E01748006884B252
:1025700044F01004144804600520114908700A2032
:1025800048701AE00E484078401E0D4948700846D1
:10259000407858B90C48006884B224F010040A4806
:1025A00004600620087000200649086005E000BFAE
:1025B00000BF06200249087000BF00BF70BD0000C8
:1025C000490200204C020020405C004010B5074842
:1025D000006884B224F0040404480460FFF766FA3B
:1025E0004FF43F400149086010BD0000405C0040CE
:1025F0002DE9F04104460D4617461E46B8191C4900
:1026000051F82410884213D92A2D02D10220FEF756
:102610005DF80020FEF75AF821220521204602F03D
:1026200059F80021012002F037F80020BDE8F081C0
:1026300010488168104850F824007043814214D03B
:102640002A2D03D10220FEF741F802E00020FEF718
:102650003DF80849487B2422052102F03BF800217F
:10266000012002F019F80020E0E70120DEE7000079
:102670008C000020FCBF00208800002010B504461C
:102680002046FFF73FFA68B10749487B3A2202210A
:1026900002F020F80121084601F0FEFF0020FEF7BD
:1026A00015F810BD00BFFCE7FCBF002070B5064662
:1026B0000C48007C00F0010010B10B4C05250BE02C
:1026C0000EB90A4C00E00A4C0648C07C242802DC03
:1026D0000448C57C00E024252946204602F044FB3E
:1026E00070BD0000FCBF0020C8000020F1000020E9
:1026F000CD00002010B504460E48806818B90020AF
:10270000FDF7E4FF0BE00B48007B00F0800018B100
:102710000020FDF7DBFF02E00220FDF7D7FF0549AF
:10272000487B2022052101F0D5FF0021012001F086
:10273000B3FF10BDFCBF002010B5044608210248BD
:1027400002F012FB10BD00001A01002010B5044673
:102750000421024802F008FB10BD00001601002011
:1027600070B506460C4615461948007820BB194935
:10277000487B2B4622462821FFF73AFF00B970BD5F
:102780001448007B00F0800040B10220104908701E
:102790002A4621463046FFF705FE0CE00220FDF7F1
:1027A00095FF0C49487B2422052101F093FF01216C
:1027B000084601F071FFE2E705480078022804D1DD
:1027C0002A4621463046FFF7EDFD00BFD7E700005F
:1027D00048010020FCBF002010B504462046FFF74A
:1027E00091F968B11F49487B3A22022101F072FF3A
:1027F0000121084601F050FF0020FDF767FF10BDE2
:10280000194850F82400401E000E18490870164858
:1028100050F82400401E000C4870134830F8240083
:10282000401E000A8870104810F82400401EC8702E
:102830000F4850F82400000E08710D4850F824008D
:10284000000C48710A4830F82400000A88710848D2
:1028500010F82400C8710821044802F085FA00BF6E
:10286000CDE70000FCBF00208C00002034010020D8
:102870008800002010B504462046FFF743F968B1F0
:102880001A49487B3A22022101F024FF012108461F
:1028900001F002FF0020FDF719FF10BD144850F8A9
:1028A0002400000E13490871114850F82400000C50
:1028B00048710F4830F82400000A88710C4810F85D
:1028C0002400C8710C4850F82400000C48720A48D3
:1028D00030F82400000A8872074810F82400C872F3
:1028E0000C21044802F040FA00BFD6E7FCBF0020EC
:1028F0008C0000203C0100208800002070B50546B7
:102900000648C07C122802DC0448C47C00E0122483
:102910002146034802F028FA70BD0000FCBF0020E9
:102920002201002010B504460121002001F0B4FE70
:1029300010BD000010B504462046FFF7E3F868B16B
:102940000949487B3A22022101F0C4FE01210846D0
:1029500001F0A2FE0020FDF7B9FE10BD012100200C
:1029600001F09AFE00BFF8E7FCBF002010B5044656
:102970000D48806848B90C48007C00F0040020B97C
:102980000121002001F088FE0CE00220FDF79EFEF0
:102990000549487B2422052101F09CFE00210120ED
:1029A00001F07AFE10BD0000FCBF002070B50646A5
:1029B0000C4615461948007820BB1949487B2B4620
:1029C00022462A21FFF714FE00B970BD1448007B8F
:1029D00000F0800040B90120104908704FF44051C8
:1029E000022001F05BFD0CE00020FDF76FFE0C49BA
:1029F000487B2422052101F06DFE0021012001F019
:102A00004BFEE2E705480078012804D12A4621461A
:102A1000304602F091FD00BFD7E7000048010020DA
:102A2000FCBF00207CB505460024002000900190EA
:102A300000260DB1022600E000262248406900F081
:102A4000007008B10E207CBD1F49098888B2694614
:102A5000FEF79CFD04460CB12046F4E7019800F413
:102A6000802060B3184800880004184908603720A7
:102A70004860402088600020C8604FF48060086192
:102A8000084600F0A1F83720FEF750F904460CB1D3
:102A90002046D8E70D48066006200C4948604020D3
:102AA00088600020C8604FF480600861084600F02C
:102AB0008BF80620FEF73AF904462046C3E72520A6
:102AC000C1E70000008001401800002068120020CB
:102AD0000149886370470000008001400149086097
:102AE00070470000A00030420146034A506820F0C1
:102AF000FF000843506070470080014001490860B2
:102B0000704700008C05304200210A4B02685A626F
:102B100042689A621A46D16A21F0F701D0E902238D
:102B20001A4303691A4343691A431143014AD162A4
:102B3000704700000080014000200649086048609E
:102B40008860C86048628862C86203488863002061
:102B5000C863704700800140FF07C00001460020A5
:102B6000034A526B0A400AB1012000E0002070477E
:102B7000008001400248006800F003007047000038
:102B80000080014010B500F053FC10BD00210A4A3E
:102B9000516847F6FF629143027D83681A43436898
:102BA0001A43C3681A4303681A4303691A4311435B
:102BB000014A5160704700000080014001480068F0
:102BC00070470000808001400021094B02689A6034
:102BD0001A46D1686FF30A01D0E901231A43C3688A
:102BE0001A4303691A431143014AD1607047000038
:102BF000008001400549096821F00301034A116082
:102C000011460968014311607047000000800140CF
:102C100001490860704700008080014070B58CB0A9
:102C200006460C46154601210220FFF71BFB134800
:102C3000FEF76CF900211148FEF75CF9104801908D
:102C400002960395A008049000200590802006902D
:102C50008000079080000890002009904FF40050F9
:102C60000A9000200B9001A90448FEF7F5F9002115
:102C70000248FEF73FF90CB070BD0000440402406A
:102C80008080014070B5044600251648007803286E
:102C900001D1272070BD1348007838B11148007861
:102CA000012803D00F480078022818D1022C01D344
:102CB0002720EFE7E0B2FFF7B5FE05467DB90A48E9
:102CC000406820F4C0500849486008464068A1B2F6
:102CD00040EAC120044948600846406848602846E8
:102CE000D8E700001400002000800140F0B5014644
:102CF00000200022BE4B1B7881F85630BD4B1B884C
:102D0000A1F85430BC4B1B681A0E93090B70C2F328
:102D100083034B7002F003038B70B74B1B68C3F344
:102D20000742CA70B44B1B88C3F307220A71B24B27
:102D30001A784A715B681A0E1301CB80AE4B5B6840
:102D4000C3F30742CB8843EA1213CB8002F00F0390
:102D50000B72A94B9B88C3F30722D3094B72C2F3B2
:102D600080138B72C2F34013CB72C2F300130B7348
:102D700000234B739E4B1B783BB19D4B1B78012B63
:102D800003D09B4B1B78032B4FD193071B0D0B617B
:102D9000994B1A790B6943EA82030B61964B9B6846
:102DA0001A0E0B6943EA92130B61C2F3C2030B754F
:102DB00002F007034B75904B9B68C3F3074253091E
:102DC0008B75C2F38203CB7593075B0F0B768A4B2F
:102DD0001B89C3F307220B7E43EAD2130B760B69E0
:102DE0005B1C0024C1E912340B7E9B1C012404FAF5
:102DF00003F3DC17D1E91256A5FB037C06FB03C3E2
:102E000005FB0433C1E912730C7A0123A3400B655F
:102E10000024D1E912650B6DA6FB037C05FB03C3FF
:102E200006FB0433C1E912732EE0714B1B78022BB1
:102E30002AD1714B1A7993069B0A0B616E4B9B68E2
:102E40001A0E0B6943EA02230B616B4B9B68C3F3B9
:102E500007420B6913430B61674B1B89C3F30722BE
:102E60000B695B1C4FF40074A3FB04464FF48063B2
:102E70000025A4FB037C06FB03C304FB0533C1E967
:102E800012734FF400730B65C2F3801301F8193FFE
:102E900093065B0E4B70584B1A7A4B7843EAD21369
:102EA0004B7002F07F038B70534BDB681A0ED30913
:102EB000CB70C2F341130B71C2F382034B719307C2
:102EC0001B0F8B714C4BDB68C3F307428B7943EAD2
:102ED00092138B71C2F34013CB7100230B7202F07B
:102EE00001034B72444B9B89C3F30722D3098B72B6
:102EF000C2F38013CB72C2F340130B73C2F30013FF
:102F00004B73C2F381038B7302F00303CB733A4B11
:102F10001A7B53080B7401234B74384B1B681A0E31
:102F2000CA741939354B1B68C3F307421402CC85A8
:102F3000324B1B88C3F30722CB8D1343CB852F4B1A
:102F40001A7814060C635B681A0E0B6B43EA024492
:102F50000C632A4B5B68C3F307420B6B43EA022402
:102F60000C63264B9B88C3F307220B6B13430B6345
:102F7000224B1A7934235A54204B9B681A0E35235E
:102F80005A541E4B9B68C3F3074214068C631B4BB9
:102F90001B89C3F307228B6B43EA02448C63174BF4
:102FA0001A7A8B6B43EA02248C63144BDB681A0E8B
:102FB0008B6B13438B63114BDB68C3F307423C23DA
:102FC0005B5C43EA12143C235C5413071C0DCC8752
:102FD0000A4B9B89C3F30722CB8F1343CB87074B45
:102FE0001A7B540840235C54012441235C54F0BDF7
:102FF000140000201800002094120020A4120020C9
:103000007CB50025002401213020FFF74BF9012178
:1030100040F20240FFF726F94FF4F850ADF80000F7
:1030200018208DF8030003208DF80200694630480F
:10303000FEF776FB0420ADF8000018208DF80300A1
:1030400003208DF8020069462A48FEF769FB8020BC
:10305000ADF8000048208DF8030003208DF8020031
:1030600069462448FEF75CFBFFF766FD31208DF8CA
:10307000040000208DF805008DF8060001208DF871
:10308000070001A8FEF78EFF00F0E4F8044614B92B
:1030900000F036F804461CB91748FFF727FE04462F
:1030A00034B91549B1F85410080400F04BFD04463A
:1030B0001CB90120FFF7E6FD04461CB10F4800785B
:1030C000032812D10C4890F8560020B10A4890F815
:1030D0005600012801D1122500E00C252846FFF7F3
:1030E00003FD002000F046FD044620467CBD0000A4
:1030F0000010014000140140B8120020140000200C
:1031000038B5002401200090FFF734FD08B92520D0
:1031100038BD4A480078042821D00020484908607A
:1031200002204860C02088600020C8604FF48060A2
:1031300008610846FFF748FDFDF728FE04460CB17C
:103140002046E5E73F4840693F4908603D488069BF
:1031500048603C48C06988603A48006AC86037489F
:10316000007858B135480078012807D033480078F6
:10317000062803D031480078022816D100203049B3
:10318000086003204860402088600020C8604FF439
:10319000806008610846FFF717FD69460320FDF7C8
:1031A0003BFE04460CB12046B2E7244800780328D1
:1031B00016D1BDF8000000042149086003204860D2
:1031C000402088600020C8604FF480600861084695
:1031D000FFF7FAFCFDF7DAFD04460CB1204697E74D
:1031E00016480078042827D0BDF800001749086069
:1031F000BDF8000000041249086009204860C020A2
:1032000088600020C8604FF4806008610846FFF7BE
:10321000DBFCFDF7BBFD04460CB1204678E709480E
:1032200040690B4908600748806948600548C069E3
:1032300088600448006AC860002069E71400002024
:103240006812002000800140A41200201800002015
:10325000941200202DE9F0470027002400260025C5
:10326000A046A146B2206C4908750020086048605D
:103270008860C86008610846FFF788FC0320FFF7F4
:10328000B9FC0120FFF72AFC00BF12E000206349CF
:10329000086048608860C8604FF480600861084634
:1032A000FFF792FCFDF72AFD044604B903E0781C01
:1032B000C7B24A2FEADB00BF14B12046BDE8F08751
:1032C0004FF4D57055490860082048604020886058
:1032D0000020C8604FF4806008610846FFF774FC66
:1032E000FDF7E2FD044624B901204D4908704FF076
:1032F00080490020494908603720486040208860A4
:103300000020C8604FF4806008610846FFF75CFC4D
:103310003720FDF70BFD0446002C4BD134E0002094
:103320003E49086037204860402088600020C8601F
:103330004FF4806008610846FFF746FC3720FDF730
:10334000F5FC04460CB12046B8E7364849EA0000CF
:103350003249086029204860402088600020C86009
:103360004FF4806008610846FFF72EFCFDF738FD3A
:1033700004460CB12046A1E72B484669012080EAAB
:10338000D67080F001086D1CB8F1000F03D14FF624
:10339000FF708542C3D34FF6FF70854202D31B24D2
:1033A00020468BE706F08040061E32D002201C49E2
:1033B00008702EE01CE01D48184908600120486094
:1033C000402088600020C8604FF480600861084693
:1033D000FFF7FAFBFDF704FD04460CB120466DE74C
:1033E00011484669012080EAD67080F001086D1C02
:1033F000B8F1000F03D14FF6FF708542DBD34FF6D3
:10340000FF70854202D31B24204657E7032004495E
:103410000870204652E70000501200206812002079
:103420001400002000001080008001400080FF8018
:1034300010B54948406B00F4807070B3474800787D
:10344000012814D10020464908600C204860402023
:1034500088600020C8604FF4806008610846FFF76C
:10346000B3FB0C20FDF762FC3E49087002E000202F
:103470003C4908703848806B40F480703649886356
:103480000846C06B4CF23A3188433349C863012087
:10349000354908703348007810BDFFE70220FFF778
:1034A0005DFB68B10220FFF713FB2B48C06B4CF2A9
:1034B0003A3188432849C86302202A490870EBE75B
:1034C0000820FFF74BFB68B10820FFF701FB2248FB
:1034D000C06B4CF23A3188431F49C863042021492C
:1034E0000870D9E72020FFF739FB68B12020FFF7EB
:1034F000EFFA1948C06B4CF23A3188431649C86359
:10350000062018490870C7E71020FFF727FB68B1AD
:103510001020FFF7DDFA1048C06B4CF23A318843B7
:103520000D49C86305200F490870B5E74FF40070D6
:10353000FFF714FB70B14FF40070FFF7C9FA0648AB
:10354000C06B4CF23A3188430349C86307200549F0
:103550000870A1E700209FE7008001401D000020C7
:10356000681200201E0000201F0000202DE9F84FE7
:103570008146174698460A9C4FF0000AD3464D46AE
:103580004FF0FF36B9F1000F02D12620BDE8F88FC9
:1035900000208249C86282480078022805D10402CE
:1035A000780A40EAC8574FEA682800207D498860B9
:1035B0004860401E0860012048610020C860086122
:1035C0000846FFF7A1FA7548406900F0007008B19D
:1035D0000E20DBE7002C21DDB4F5006F1EDC601E41
:1035E0002040D8B9204602F06EF800906E48046082
:1035F00010206D494860402088600020C8604FF46A
:10360000806008610846FFF7DFFA1020FDF78EFBA7
:103610008246BAF1000F03D05046B7E72620B5E73F
:10362000009800015F498860084644604FF0FF3011
:103630000860012048610220C86000200861084637
:10364000FFF762FA58480760112057494860402048
:1036500088600020C8604FF4806008610846FFF76A
:10366000B3FA1120FDF762FB8246BAF1000F01D0D8
:1036700050468BE74D48007800285AD1FEF746F9AE
:1036800018E04FF40040FFF769FA78B14FF0000BF3
:1036900006E042488030006845F82B000BF1010B32
:1036A000BBF1080FF5D32035414E03E00EB90420DD
:1036B0006CE7761E3948406B40F22A6108400028CA
:1036C000DFD00820FFF74AFA20B10820FFF700FA00
:1036D00004205BE70220FFF741FA20B10220FFF748
:1036E000F7F9022052E72020FFF738FA20B1202016
:1036F000FFF7EEF9062049E74FF40070FFF72EFAC6
:1037000028B14FF40070FFF7E3F907203EE703E02C
:10371000FFF754FA28602D1D4FF40010FFF71EFA32
:103720000028F5D1FEF7F4F840F2FF50FFF7D0F98A
:1037300031E01E48007801282DD10022214648465C
:10374000FFF76CFA00201B4908701B4908701B49E1
:1037500008701248C06B40F22A3108430F49C86311
:103760000120FFF7CBF900E0761E1548006800F451
:10377000005038B91148007820B90E48007808B9CF
:10378000002EF1D10EB9042000E70A48007810B1EC
:10379000084890F800A05046F8E60000008001407C
:1037A000140000207C120020681200201C00002061
:1037B000FFFF7F001E0000201D0000201F000020D2
:1037C000000402402DE9FE4F83460C46914600203E
:1037D0000290002625462C46700240EAD5566D021E
:1037E0000BF00300F0B14FF0000A18E04FF4007046
:1037F00000904FEA4A20471946EBE0733A461648D4
:10380000FFF7B4FE02904FF4007213495846FCF7DC
:1038100029FE0BF5007B0AF1010000F0FF0ACA4502
:10382000E4DB16E0B9F1010F09D14FF400702A462C
:10383000334600905846FFF799FE029009E04FF496
:1038400000702A463346CDE90009584600F006F8D4
:1038500002900298BDE8FE8F101300202DE9FF5F53
:1038600017469846DDE90E464FF00009CA464FF06C
:10387000FF35A949009808600020A849C862A848F7
:103880000078022805D10402780A40EAC8574FEAB6
:1038900068280020A34988604860401E0860012015
:1038A00048610020C86008610846FFF72DF99B4871
:1038B000406900F0007018B10E2004B0BDE8F09F20
:1038C000002C21DDB4F5006F1EDC601E2040D8B94D
:1038D000204601F0F8FE8346934804601020924988
:1038E0004860402088600020C8604FF48060086114
:1038F0000846FFF769F91020FDF718FA8146B9F17B
:10390000000F03D04846D8E72620D6E7012E70D90D
:1039100006FB04F0B0F1007F01D32620CDE74FEA8B
:103920000B108049886006FB04F048604FF0FF30C0
:103930000860012048610220C86000200861084634
:10394000FFF7E2F878480760122077494860402086
:1039500088600020C8604FF4806008610846FFF767
:1039600033F91220FDF7E2F98146B9F1000F01D0D9
:103970004846A2E76D48007800287DD1FDF7C6FFD4
:103980001EE04FF40040FFF7E9F8A8B14FF0000A3D
:1039900008E06248803000685F49096841F82A0001
:1039A0000AF1010ABAF1080FF3D35B48006820302E
:1039B000594908605E4D03E00DB904207DE76D1E96
:1039C0005648406B40F22A3108400028D9D00820E0
:1039D000FFF7C4F820B10820FFF77AF804206CE75D
:1039E0000220FFF7BBF828B10220FFF771F8022090
:1039F00063E78EE02020FFF7B1F820B12020FFF729
:103A000067F8062059E74FF40070FFF7A7F828B1D0
:103A10004FF40070FFF75CF807204EE709E0FFF76E
:103A2000CDF83D49096808603B480068001D3A49E7
:103A300008604FF40010FFF791F80028EFD14FF421
:103A40008070FFF78BF820B33548007838B13448E0
:103A50000078012803D032480078022819D10020CC
:103A6000314908600C204860402088600020C86010
:103A70004FF48060086100E012E00846FFF7A4F808
:103A80000C20FDF753F98146B9F1000F01D04846EB
:103A900013E7FDF73DFF40F2FF50FFF719F838E05C
:103AA00022480078012834D106FB04F10022009856
:103AB000FFF7B4F800201F49087001201E49087064
:103AC00000201E4908701548C06B40F22A31084397
:103AD0001249C8630846C06A40F00800C86200E0A6
:103AE0006D1E1748006800F4005008B9002DF7D18A
:103AF0000DB90420E1E600BF1048007818B90D4860
:103B000000780028F8D00B48007810B1094890F8E8
:103B100000904846D1E600002000002000800140CF
:103B2000140000207C120020681200201C000020DD
:103B3000FFFF7F001E0000201D0000201F0000204E
:103B40000004024010B504460948046007200849F3
:103B50004860402088600020C8604FF480600861A1
:103B60000846FFF731F80720FDF7E0F810BD000028
:103B70006812002001460020012900D011B9024B33
:103B8000197000E0262070471C0000202DE9FF5F1F
:103B900086B017469846149D002600200590049094
:103BA000002481460390824602900195DDF818B00A
:103BB000DDF818B0BBF1000F03D126200AB0BDE834
:103BC000F09F0020C449C862C44988604860401E14
:103BD0000860012048610020C86008610846FEF7BF
:103BE00093FFBD48406900F0007008B10E20E5E782
:103BF000BB480078022805D10502780A40EAC85778
:103C00004FEA6828002D1FDDB5F5006F1CDC681E2B
:103C10002840C8B9284601F056FD0590B148056016
:103C20001020B0494860402088600020C8604FF4F0
:103C3000806008610846FEF7C7FF1020FDF776F8A0
:103C400006461EB13046B9E72620B7E7A6480088E9
:103C50000004A44908600D204860402088600020CE
:103C6000C8604FF4806008610846FEF7ADFF0D2084
:103C7000FDF75CF806460EB130469FE7964840696E
:103C800003904FF0FF341BE0641E97480088000447
:103C9000944908600D204860402088600020C8607A
:103CA0004FF4806008610846FEF78EFF0D20FDF797
:103CB0003DF806460EB1304680E7874840690390DC
:103CC000039800F4807008B9002CDDD10CB92920CC
:103CD00074E7844807601820824948604020886063
:103CE0000020C8604FF4806008610846FEF76CFF52
:103CF0001820FDF71BF806460EB130465EE700209F
:103D00007A49087005980001744988600846456042
:103D10004FF0FF300860012048610020C860086152
:103D20000846FEF7F1FE4FF0FF3471480078002896
:103D30007BD1FDF7EBFD43E04FF48040FEF70EFF33
:103D4000C8B30198A0EB0900202821D20198A0EB6C
:103D5000090000F0030020B90198A0EB09008008D9
:103D600004E00198A0EB09008008401C02904FF08D
:103D7000000A09E0DBF80000FEF74AFF0AF1010A39
:103D80000BF1040B09F1040902988245F2D30FE00C
:103D90004FF0000A05E05BF82A00FEF739FF0AF150
:103DA000010ABAF1080FF6D30BF1200B09F1200933
:103DB0006FF0404404E0FFE70CB90420FEE6641E07
:103DC0004548406B40F21A6108400028B4D00820F2
:103DD000FEF7C4FE20B10820FEF77AFE0420EDE6CF
:103DE0000220FEF7BBFE20B10220FEF771FE02208A
:103DF000E4E61020FEF7B2FE20B11020FEF768FEC8
:103E00000520DBE64FF40070FEF7A8FE30B14FF45A
:103E10000070FEF75DFE0720D0E606E0FDF778FDB6
:103E200040F2FF502C4988633EE031480078012879
:103E30003AD1102229460698FEF7F0FE00202D49BF
:103E400008702A4908702C4908702348C06B40F25A
:103E50001A3108432049C8630846C06A40F0080088
:103E6000C86200E0641E2548006800F4005008B9EC
:103E7000002CF7D11CB9FFF7C3F804209EE64FF0E1
:103E8000FF3400E0641E1C48007820B9194800780F
:103E900008B9002CF6D10CB904208FE6154800783B
:103EA00010B11448007889E640F2FF50FEF710FE8A
:103EB00004A8FDF787FD064603E004A8FDF782FD90
:103EC00006463EB99DF810000728F6D09DF8100070
:103ED0000628F2D0304671E6008001407C120020B6
:103EE0001400002068120020180000201D0000208F
:103EF0001C0000201E0000201F00002000040240C3
:103F00002DE9FE4F81460C46924600200290002685
:103F100025462C46700240EAD5566D0209F0030092
:103F2000F0B14FF0000B18E04FF400724946194809
:103F3000FCF798FA4FF4007000904FEA4B204719B5
:103F400046EBE0733A461348FFF720FE029009F56E
:103F500000790BF1010000F0FF0BD345E4DB16E024
:103F6000BAF1010F09D14FF400702A463346009090
:103F70004846FFF70BFE029009E04FF400702A4616
:103F80003346CDE9000A484600F006F80290029850
:103F9000BDE8FE8F101300202DE9FF5F84B0DDE93E
:103FA000124700260020039002900025804681469B
:103FB000019007FB04FBDDF810A0DDF810A0BAF1BA
:103FC000000F03D1262008B0BDE8F09F0020D8499B
:103FD000C862D84988604860401E08600120486176
:103FE0000020C86008610846FEF78EFDD048406991
:103FF00000F0007008B10E20E5E7CF4800780228F5
:1040000008D10402DDE90601400A40EAC150491224
:10401000CDE90601002C1FDDB4F5006F1CDC601E2D
:104020002040C8B9204601F04EFB0390C34804600D
:104030001020C2494860402088600020C8604FF4CA
:10404000806008610846FEF7BFFD1020FCF76EFE99
:1040500006461EB13046B6E72620B4E7012F6FD9D9
:1040600007FB04F0B0F1007F01D32620ABE7B24894
:10407000007838B1B0480078012803D0AE48007805
:1040800002282DD1AE4800880004AC4908603720D2
:104090004860402088600020C8604FF4806008615C
:1040A0000846FEF791FD3720FCF740FE06460EB1AC
:1040B000304688E7A14807601720A04948604020A3
:1040C00088600020C8604FF4806008610846FEF7F1
:1040D0007BFD1720FCF72AFE06460EB1304672E73C
:1040E00096490698086019204860402088600020A2
:1040F000C8604FF4806008610846FEF765FD19202E
:10410000FCF714FE06460EB130465CE7039800014A
:104110008849886007FB04F048604FF0FF30086072
:10412000012048610020C86008610846FEF7ECFCE9
:1041300084480078002871D1451EFDF7E7FB40E078
:10414000DEE07B48406B00F48040A8B3ABEB080096
:1041500020281ED2ABEB080000F0030018B9ABEB2F
:104160000800800803E0ABEB08008008401C0190C9
:104170004FF0000909E0DAF80000FEF749FD09F107
:1041800001090AF1040A08F1040801988145F2D3F3
:104190000FE04FF0000905E05AF82900FEF738FD5E
:1041A00009F10109B9F1080FF6D30AF1200A08F163
:1041B00020086FF0404504E0FFE70DB9042002E756
:1041C0006D1E5B48406B40F21A3108400028B8D0A1
:1041D0000820FEF7C3FC20B10820FEF779FC04207C
:1041E000F1E60220FEF7BAFC20B10220FEF770FCD7
:1041F0000220E8E61020FEF7B1FC20B11020FEF707
:1042000067FC0520DFE64FF40070FEF7A7FC30B135
:104210004FF40070FEF75CFC0720D4E62CE04FF46E
:104220008070FEF79BFC00B34348007838B14248E9
:104230000078012803D040480078022815D10020DA
:104240003E4908600C204860402088600020C8601B
:104250004FF4806008610846FEF7B6FC0C20FCF7BE
:1042600065FD06460EB13046ADE6FDF751FB40F266
:10427000FF50FEF72DFC43E03248007801283FD183
:1042800007FB04F110220498FEF7C8FC00202E4919
:10429000087001202D49087000202D49087024481D
:1042A000C06B40F21A3108432149C8630846C06A0E
:1042B00040F00800C8624FF0FF3500E06D1E254851
:1042C000006800F4005008B9002DF7D11DB9FEF7C1
:1042D00097FE042077E64FF0FF3500E06D1E1C4886
:1042E000007820B91848007808B9002DF6D10DB92A
:1042F000042068E61448007810B11348007862E69C
:1043000040F2FF50FEF7E4FB02A8FDF75BFB064618
:1043100003E002A8FDF756FB06463EB99DF80800EB
:104320000728F6D09DF808000628F2D030464AE665
:10433000008001407C120020140000206812002040
:10434000180000201C0000201E0000201D0000207E
:104350001F0000200004024070B50546002405E05F
:10436000601CC4B2C82C01DD002070BD02210E48C3
:1043700000F01CF80028F3D029460B4800F022F882
:10438000002405E0601CC4B2C82C01DD0020ECE76D
:104390000121054800F00AF80028F3D0024800F097
:1043A0000EF8C0B2E1E700000038004002460020ED
:1043B00013890B400BB1012000E00020704701463B
:1043C0008889704781817047704700004FF6F87107
:1043D0000140014A11607047505C004030B5014611
:1043E0000F4B1A78002014E003060E4C04EB935395
:1043F000D3F8003C48F68F74234048F280042343EE
:10440000C4B223430406074D05EB9454C4F8003CA2
:10441000401C9042E8D341F08003034C236030BD40
:10442000B5010020005000404C5C004010B54A101F
:104430005300054A126892B202EBC002121D034CEF
:1044400044F8123010BD0000505C00400060004095
:1044500010B502460F48006880B200EBC200801D14
:104460000D4C04EB40033E290BDD481101F01F0405
:104470000CB9441EA0B24FF4004444EA80241C60EE
:1044800007E0481001F001040CB1441CA0B2840202
:104490001C6010BD505C00400060004030B50E4C08
:1044A00004EB8003D3F8003C4BF68F7403EA04025C
:1044B00001F480530BB182F4805201F400530BB12C
:1044C00082F4005242F4004343F08003024D05EBB6
:1044D0008004C4F8003C30BD0050004010B50B4BC8
:1044E00003EB8002D2F8002C4BF68F7302EA030133
:1044F00081F4805181F4005141F4004242F0800285
:10450000024C04EB8003C3F8002C10BD00500040A7
:1045100010B54A105200044B1B689BB203EBC0035A
:10452000024C44F8132010BD505C00400060004075
:10453000044A126892B202EBC002921C024B43F88A
:1045400012107047505C00400060004030B50E4CC7
:1045500004EB8003D3F8003C48F6BF7403EA04027E
:1045600001F010030BB182F0100201F020030BB137
:1045700082F0200242F4004343F08003024D05EB39
:104580008004C4F8003C30BD0050004010B5074B1B
:1045900003EB8002D2F8002C48F68F131A400A432E
:1045A000024C04EB8003C3F8002C10BD0050004007
:1045B00010B500F001F810BD0CB50020019000907E
:1045C0003348006840F480303149086000BF30480B
:1045D000006800F4003000900198401C01900098A1
:1045E00018B90198B0F5A06FF1D12948006800F41E
:1045F000003010B10120009001E0002000900098F0
:10460000012843D12348006840F010002149086088
:104610000846006820F0030008600846006840F083
:10462000020008601A484068194948600846406816
:1046300048600846406840F480604860084640682A
:1046400020F47C1048600846406840F4E810486058
:104650000846006840F08070086000BF0C480068A1
:1046600000F000700028F9D00948406820F00300ED
:10467000074948600846406840F00200486000BFB3
:104680000348406800F00C000828F9D10CBD000078
:10469000001002400020024070B505460C460A4852
:1046A0000A490860084605730D22812000F0E1FDEB
:1046B0000520074908702CB1042008703021012022
:1046C000FFF744FF70BD0000555342531CC000204B
:1046D00048010020014B99701A7370472201002095
:1046E00010B50020FDF758FE0121C805FDF7CAFDF1
:1046F00010BD000038B501242948006880B2001DB3
:10470000284931F8100080B201EB400000902648A3
:104710000068007A092832D0009800782249096898
:1047200008700098401C0090009800781E490968A5
:1047300048700098401C0090009800EB44000090E6
:10474000009931F8020B0091FBF7E2FF1649096866
:104750004880009800EB44000090009931F8020B6B
:104760000091FBF7D5FF104909688880009800EB9D
:1047700044000090009800880B490968C880012017
:1047800009490968087208480068C08810B9FDF72F
:104790004BFC01E0FCF73CFDFDF720FD38BD0000BF
:1047A000505C004000600040680000202DE9F047A8
:1047B00054480068007800F07F08B8F1000F0AD173
:1047C00050480068407A00F0DF004E49096848729E
:1047D0000020BDE8F087B8F1020F7CD1494800689D
:1047E000408818B947480068007908B10220F0E70E
:1047F000DFF8149143480068477927F080052C467C
:1048000040480068407900F0800038B13F4901EB32
:104810008400D0F8000C00F0300606E03B4901EBC4
:104820008400D0F8000C00F4405699F80000A8422B
:1048300004D91EB133480068807A08B90220C8E75D
:1048400007F0800080B1314901EB8400D0F8000C02
:1048500000F0300010284BD1E0B2FCF721FAE0B2B2
:104860003021FFF773FE43E0284901EB8400D0F8C4
:10487000000C00F44050B0F5805F39D1E4B9244A0F
:1048800092F82C10E0B2FFF7E3FD204A02EB84011E
:10489000D1F8001C4BF68F7201EA020080F48050C0
:1048A00080F4005040F4004141F08001174B03EBCD
:1048B0008402C2F8001C1BE0E0B2FCF7D7F9134AEF
:1048C00002EB8401D1F8001C4BF68F7201EA020062
:1048D00080F4805000E011E080F4005040F400418A
:1048E00041F08001094B03EB8402C2F8001C00BFB9
:1048F000084909684869804700206AE700BF02202C
:1049000067E7000068000020B5010020005000406B
:10491000B80100207400002010B504462CB9012015
:10492000064909680882002010BD05490968086821
:104930008047024800680A30F6E70000680000205F
:104940007400002010B5024606480068438A32B958
:104950008888C01A034C24682082002010BD086893
:104960001844FBE76800002010B504462CB901206C
:10497000064909680882002010BD05490968886851
:104980008047024800680C30F6E70000680000200D
:104990007400002010B504462CB90220394909687A
:1049A0000882002010BD0020374908803548006883
:1049B000007800F07F0018BB32490968487A00F09F
:1049C000200131B13049097841F002012E4A1170BD
:1049D00005E02D49097801F0FD012B4A117000F026
:1049E000400131B12849097841F00101264A11708E
:1049F00005E02549097801F0FE01234A11703AE0EB
:104A000020480068007800F07F00012801D11E488E
:104A1000C8E71C480068007800F07F00022828D111
:104A2000184A1268517901F00F0001F080027AB142
:104A3000164B03EB8002D2F8002C02F03002102A51
:104A400016D1114A127842F001020F4B1A700FE092
:104A50000E4B03EB8002D2F8002C02F44052B2F568
:104A6000805F05D1084A127842F00102064B1A70A5
:104A700001E0002096E70649096808698047024876
:104A800090E7000068000020600000200050004017
:104A90007400002010B50E480068C0780D494978B0
:104AA000884213DC0A480068807878B908480068B2
:104AB000808858B906480068C07805490968887236
:104AC0000549096848688047002010BD0220FCE7BE
:104AD00068000020B50100207400002010B50748D0
:104AE0000068407A40F0200004490968487204498F
:104AF0000968C8698047002010BD000068000020D8
:104B0000740000202DE9F0412E480068467926F017
:104B100080073C462B480068407900F0800038B19F
:104B2000294901EB8400D0F8000C00F0300506E0C4
:104B3000254901EB8400D0F8000C00F440552348CF
:104B40000078A04208D91F480068408820B91DB1EC
:104B50001C480068807A10B90220BDE8F08106F098
:104B60008000A0B1184A02EB8401D1F8001C48F67D
:104B7000BF7201EA020080F0100040F4004141F0F1
:104B80008001114B03EB8402C2F8001C14E00E4AB2
:104B900002EB8401D1F8001C4BF68F7201EA02008F
:104BA00080F4805040F4004141F08001064B03EB5B
:104BB0008402C2F8001C00BF054909688869804763
:104BC0000020CAE76800002000500040B501002026
:104BD0007400002010B5174B1B68D978154B1B6863
:104BE0005879154B1B689A6990470446114800682C
:104BF000807AE8B13CB90F480068007918B90D48CF
:104C00000068807808B1022010BD8CB90B49096892
:104C1000C868804707480068407906490968C87233
:104C200004480068C0780349096808730020EBE76E
:104C30000220E9E7680000206C00002074000020DA
:104C400038B50025002000902148006884B200BFDC
:104C500009E0204901EB8500D0F8000C80B21E4924
:104C600041F825006D1C082DF3D344F480641848E6
:104C7000046044F00104046024F00104046000BFF7
:104C80001348001D006800F480600028F8D04FF63B
:104C9000FF300F49091D0860002509E00E4850F853
:104CA000250080B20B4A02EB8501C1F8000C6D1C97
:104CB000082DF3D344F0080405480460006884B26A
:104CC00044F0040402480460FCF748FC38BD0000CE
:104CD000405C0040005000402CC00020042808D157
:104CE0004FF0E021096941F004014FF0E022116129
:104CF00007E04FF0E021096921F004014FF0E022C4
:104D0000116170477047000010B51348006840F00B
:104D100001001149086008464068104908400E49E2
:104D20004860084600680E4908400B49086008467C
:104D3000006820F4802008600846406820F4FE00E7
:104D400048604FF41F008860FFF732FC4FF00060AE
:104D50000449086010BD0000001002400000FFF888
:104D6000FFFFF6FE08ED00E070B505460C46224652
:104D70002946812000F07DFA30210120FFF7E6FB73
:104D800003200549087005488068001B03498860B6
:104D90000020087370BD0000480100201CC00020E6
:104DA00010B540F225511D4800F04AF810B31B48D9
:104DB00000F002F9C4B21A48008800F40040C8B9F3
:104DC0001748008800F4804060B10A2C03D000200E
:104DD0001349088020E01248008840F40040104940
:104DE000088019E00D2C06D10D48008840F4804061
:104DF0000B49088010E00A480088C0F30D000949FB
:104E00000C5407480088401C054908800846008863
:104E1000C72801DD0020088010BD000000380140D7
:104E20002C0000201015002021B1828942F400528C
:104E3000828104E082894DF6FF731A4082817047B7
:104E400070B50246002400230025002040F66A16B3
:104E5000B14200D100BFC1F3421501F01F0301268A
:104E600006FA03F3012D02D19689334006E0022DA4
:104E700002D1168A334001E0968A33400C12012693
:104E800006FA04F41688344013B10CB1012000E096
:104E9000002070BDF0B50346002400260025002048
:104EA00040F66A17B94200D100BF1846C1F3421458
:104EB00001F01F06012707FA06F5012C01D10C307D
:104EC00004E0022C01D1103000E014301AB1076860
:104ED0002F43076002E00768AF430760F0BD0000A2
:104EE0002DE9F04786B005460E460024A24600BFD5
:104EF000A1460027B08900B100BF2F462C8A4CF68E
:104F0000FF700440F08804432C82AC894EF6F31005
:104F10000440B08831890843718908430443AC8157
:104F2000AC8A4FF6FF400440B0890443AC8201A82C
:104F3000FDF7C8F91F48874202D1DDF810A001E053
:104F4000DDF80CA0A88900F4004040B10AEBCA00CB
:104F500000EB0A1031684900B0FBF1F807E00AEBFA
:104F6000CA0000EB0A1031688900B0FBF1F8642038
:104F7000B8FBF0F004012009642101FB1089A88925
:104F800000F4004040B1322000EBC900B0FBF1F06A
:104F900000F00700044308E0322000EB0910642110
:104FA000B0FBF1F000F00F0004432C8106B0BDE827
:104FB000F08700000038014001468888C0F30800EF
:104FC000704710B54FF48020FCF778FA10BD000050
:104FD00010B504461CB104A0FBF7D8F902E008A004
:104FE000FBF7D4F910BD00007573622070756C6C0E
:104FF00020757020656E61626C650D0A000000000E
:105000007573622070756C6C2075702064697361B3
:10501000626C650D0A00000010B508480849086078
:1050200002200968087207480749086007480849CC
:105030000860054909680868804710BDE0BF002086
:1050400068000020B80100206C000020E80100206A
:10505000740000200EB54FF48020FCF72FFA4FF4B7
:105060008020009008208DF8050001208DF80600B2
:105070006846FCF729FA14208DF8080001208DF805
:10508000090000208DF80A0001208DF80B0002A80D
:10509000FCF788FF2A208DF8080000208DF8090011
:1050A00002A8FCF77FFF0EBD10B5374800683749EE
:1050B00008800846008800F4004035490988084007
:1050C00008B1FBF78FFC3148008800F4806030495C
:1050D0000988084030B14FF6FF302B4908602D4950
:1050E000486880472948008800F40050284909880A
:1050F000084018B14DF6FF70234908602348008826
:1051000000F4805022490988084030B14EF6FF7003
:105110001D4908600020FDF7F1F91C48008800F4E3
:1051200000601B490988084060B11B48007810B135
:10513000FFF786FD02E00220FDF7E0F94FF2FF7075
:10514000114908601148008800F40070104909886E
:10515000084040B14FF6FF500B4908600F480078F7
:10516000401C0E4908700948008800F48070084906
:105170000988084030B14FF6FF60034908600720F6
:10518000FDF7BCF910BD0000445C00407801002030
:1051900072000020B8010020480200207A0100209F
:1051A00010B5FFF781FF10BD10B502A0FBF7EEF8B8
:1051B00010BD0000555342204E6F74436F6E6669F8
:1051C00067757265640D0A0010B50446012104205C
:1051D000FDF768F83CB10F48006880B220F002008B
:1051E0000C49086014E00B48006880B240F00200EF
:1051F000084908600848006820F47F2006490860D4
:105200000846006840F44C300860002003490860FC
:1052100010BD0000405C004004080140B001214284
:105220000020064908604FF43F40054908800846C1
:1052300000880249091F086000207047445C004054
:10524000720000202DE9F04104460E46002504F0CE
:105250007F00FCF703FB054604F07F00FCF7EEFA45
:1052600007462A4639463046FCF7A2FF2846BDE8E5
:10527000F0812DE9F04104460E46154604F07F000A
:10528000FCF70AFB0746AAB23946304600F00AF896
:10529000A9B204F07F00FFF74BF90020BDE8F081D0
:1052A00000BFFEE7F0B5144604F1010C4FEA6C07AD
:1052B000DFF824C00CEB41033D460AE00678401CB1
:1052C00090F800C046EA0C2223F8022B9B1C401CDD
:1052D0006D1E002DF2D1F0BD0060004010B50446F7
:1052E000214610A0FBF752F8240300F0C7F800F0A5
:1052F0005FF800200D4908602020FFF72DF8C4F367
:105300000740FFF729F8C4F30720FFF725F8E0B2BC
:10531000FFF722F801200649C1F8B00100F048F873
:1053200010BD000066653A25780D0A00B081214263
:10533000008021422DE9F04106460C461746002028
:105340000F4908600320FFF707F8C4F30740FFF791
:1053500003F8C4F30720FEF7FFFFE0B2FEF7FCFFFF
:10536000002505E0FF20FEF7F7FF7055681C85B2A9
:10537000BD42F7DB012002490860BDE8F081000072
:10538000B081214210B500240020074908600520A3
:10539000FEF7E2FFFF20FEF7DFFF0446012003498E
:1053A000C1F8B001204610BDB081214200802142E9
:1053B00010B500BFFFF7E6FF00F001000028F9D1AB
:1053C00010BD00002DE9F05F81460F461646DFF85C
:1053D000A8B04FEA1738C7F30B0ACAF58054A642A3
:1053E00000DC344644E04FEA08314FF4805258461E
:1053F000FFF7A0FF002508E00AEB05001BF80000FE
:10540000FF2800D003E0681C85B2A542F4DB00BF92
:10541000A54216DA4046FFF761FF002507E019F8BC
:10542000050005EB0A010BF80100681C85B2A542D6
:10543000F5DB4FEA08314FF48052584600F02EF861
:1054400004E022463946484600F028F8A64200D13A
:105450000FE008F101084FF0000AA1442744301B77
:1054600086B2B6F5805F02DD4FF4805400E034462A
:10547000B9E700BFBDE8F09F5002002010B5002042
:10548000044908600620FEF767FF01200249C1F8C1
:10549000B00110BDB0812142008021422DE9F041D0
:1054A00007460E461446F0B2C0F58075AC4200DCEB
:1054B000254612E02A463146384600F013F8AC4241
:1054C00000D10BE02F442E44601B84B2B4F5807FE2
:1054D00002DD4FF4807500E02546EBE700BFBDE834
:1054E000F08100002DE9F04106460C461746FFF713
:1054F000C5FF00200F4908600220FEF72DFFC4F30E
:105500000740FEF729FFC4F30720FEF725FFE0B2AE
:10551000FEF722FF002504E0705DFEF71DFF681C0A
:1055200085B2BD42F8DB012002490860FFF740FF69
:10553000BDE8F081B08121422DE9FC4704460D46CB
:1055400016465348006800F1400A5248007890B966
:10555000514850F82400A5FB0010504AC2E9001041
:105560004D4850F82400A6FB00104D4AC2E9001037
:105570000120484908704748007801286FD1002071
:105580004849086012E0474801680068401C454AE5
:10559000106045480068415C444800683C4A126815
:1055A00081543B480068401C39490860384800680D
:1055B0005045E8D33948D0E900303D4909885918A9
:1055C00040F10000354AC2E900103548D0E900201A
:1055D00037490988511A60F10000314AC2E90010C8
:1055E0002D4850F824703A4600232D4903C9FAF794
:1055F00032FE00214A404B401A4322D10020244968
:105600000860254830F8240080B228490968CDE9AF
:105610000010214850F824102048D0E900305F1ACB
:1056200060F100033A462046FCF79CFA00F0FF09BF
:10563000B9F1000F05D01F48007840F004001D4963
:1056400008701D4880681A490988401A1A498860FC
:105650004FF440510220FEF721FFFCF74DFA1048AD
:10566000D0E90010002359405840014303D01348AB
:10567000007804280AD10020054908600121FFF7BD
:105680000BF8002003490870FCF730FABDE8FC87EE
:1056900098000020A400002088000020B80000200E
:1056A000C00000209C0000204C010020A000002031
:1056B00050010020A50000201CC00020480100204F
:1056C000014600BF70470146002002E04910421C1D
:1056D000D0B20129FAD1704710B56FF00400FFF77E
:1056E000FDFA0A4800680A49B0FBF1F00949087060
:1056F0000846007800EB4001C1EBC0104FF6FF7187
:1057000001EAC0000449088010BD0000000000202C
:1057100000127A0024000020260000200146114AD1
:1057200012884A434FF0E0235A6100229A611A46D8
:10573000126942F001021A6100BF4FF0E0221069C5
:1057400000F001021AB100F48032002AF5D04FF0C7
:10575000E022126922F001024FF0E0231A610022D8
:105760009A6170472600002000BF054A128802F0A7
:105770004002002AF9D0C2B2014B1B1D1A807047AB
:1057800000380140FFF7A8FF4FF4A060FCF742FC8F
:105790004FF4E13000F00CF9FCF762F9002000F062
:1057A00053F8FDF72DFC18B100202049087015E0D2
:1057B0001F48D0E912101F4AC2E900104FF40070D0
:1057C0001D49086008460468104622460023D0E9B7
:1057D00000512846FAF7B6FD184908604FF4E16019
:1057E000FFF79CFF0020FFF7EFFC4FF42F70FFF74F
:1057F00095FF0120FFF7E8FC4FF40071002000F056
:10580000B9F80F4908604021002000F0B3F80D49B5
:105810000860FFF71FFCFEF763FFFFF7FDFB4FF487
:10582000E160FFF77BFF00BFFEE70000B40100204E
:10583000B812002080000020880000208C0000208A
:10584000A00000204C01002010B504460C4951F87E
:1058500024104A000B4951F82400002100F09EF862
:10586000094951F824200749083951F8240000213A
:1058700000F094F8012103480830015510BD0000E4
:10588000505A000854000020605A00082DE9F047E3
:1058900004460F460025A9462348005D20B922484A
:1058A00018380168204688471FB94FF0FF30BDE81F
:1058B000F0871E4850F82400B7FBF0F61B4850F85C
:1058C0002400B7FBF0F100FB117000B1761C184802
:1058D00050F82400451E22E01348083850F82400F0
:1058E00030F8150010B909F1010901E04FF0000985
:1058F000B14513D14FF0000809E00B48083850F8C3
:10590000240005EB080220F8126008F10108B045F8
:10591000F3D3064850F824006843C8E76D1E002DF5
:10592000DADA4FF0FF30C2E75C000020585A000876
:10593000505A000810B501460023002207E00B482A
:1059400050F8210030F8120000B15B1C521C0848CE
:1059500050F821009042F2D864205843044C54F887
:105960002140B0FBF4F0C0B210BD00005400002094
:10597000505A000870B504460E4631462046FFF7DF
:1059800085FF0546681C08B9002070BD024850F824
:1059900024002844F9E700004C00002030B50346FD
:1059A00001E003F8011B141EA2F10102F9D130BD80
:1059B00010B586B00446012144F20400FCF772FCE5
:1059C0004FF40070ADF8140003208DF81600182075
:1059D0008DF8170005A91C48FBF7A2FE4FF4806064
:1059E000ADF8140004208DF8170005A91648FBF740
:1059F00097FE25208DF8000003208DF801008DF81A
:105A0000020001208DF803006846FCF7CBFA0194F0
:105A10000020ADF80800ADF80A00ADF80C00ADF8B4
:105A200010000C20ADF80E0001A90848FFF758FA45
:105A3000012240F225510548FFF72CFA01210348C5
:105A4000FFF7F2F906B010BD000801400038014030
:105A50000005000001000000200000002000000000
:105A600000A0000020000000120100020000004021
:105A700083042057000201020301090220000101F2
:105A800000C0320904000002080650040705810224
:105A90004000000705020240000004030904260339
:105AA0007F5EDE5D1F66FC7F3575505BD17962805D
:105AB000096750966C51F853000000000000000088
:105AC00000000000260341004C00490045004E0044
:105AD000540045004B002000530044006153FB8BF1
